:100000000C9434000C9449000C9449000C94490061
:100010000C9449000C9449000C9449000C9449003C
:100020000C9449000C9449000C9449000C9449002C
:100030000C9449000C9449000C9449000C9449001C
:100040000C9449000C9449000C9449000C9449000C
:100050000C9449000C9449000C9449000C944900FC
:100060000C9449000C94490011241FBECFEFD8E036
:10007000DEBFCDBF11E0A0E0B1E0E2EBF2E002C0F4
:1000800005900D92AA30B107D9F70E94BF000C94D9
:1000900057010C940000DF93CF9300D00F92CDB79F
:1000A000DEB71B821A82198220C0E6E2F0E080816E
:1000B000882F90E0098002C0959587950A94E2F711
:1000C00081709070009761F481E090E0098002C037
:1000D000880F991F0A94E2F7982F8B81890F8B83E1
:1000E00089819A8101969A83898389819A81843052
:1000F0009105DCF28B810F900F900F90CF91DF91E3
:100100000895DF93CF9300D000D00F92CDB7DEB724
:1001100069837A838B839C8389819A81AB81BC813B
:1001200023E731E040E050E0BC01CD010E942C010A
:10013000DC01CB0189839A83AB83BC831D828981D7
:100140009A81AB81BC810097A105B10511F081E0D6
:100150008D8389819A81AB81BC810197A109B10905
:1001600089839A83AB83BC838D81882339F70F9071
:100170000F900F900F900F90CF91DF910895DF9324
:10018000CF93CDB7DEB761970FB6F894DEBF0FBE41
:10019000CDBFEAE2F0E08FEF8083E7E2F0E010828B
:1001A000E8E2F0E08FE08083CE0103969E878D87A2
:1001B000E0E0F1E0F88BEF87FAE0F98BEF85F88962
:1001C00000808F8598890196988B8F87ED85FE85B5
:1001D00000828D859E8501969E878D879989915095
:1001E000998BE989EE2351F789E08A8389E0898335
:1001F000EBE2F0E08FEF80830E944B009AE0692FE2
:100200000E944B01892F982F8A81981751F00E94E4
:100210004B009AE0692F0E944B01892F8A838A81C3
:100220008983ABE2B0E08981282F30E0CE010396CC
:10023000FC01E20FF31F80818C93898181508983B7
:1002400064EF71E080E090E00E9481008981882362
:1002500099F68A818983D0CF629FD001739FF00184
:10026000829FE00DF11D649FE00DF11D929FF00D46
:10027000839FF00D749FF00D659FF00D9927729F7D
:10028000B00DE11DF91F639FB00DE11DF91FBD0108
:10029000CF0111240895991B79E004C0991F961786
:1002A00008F0961B881F7A95C9F780950895F894F1
:0202B000FFCF7E
:0A02B200F7A4DDEDAEEBFBA7FFEFB4
:00000001FF
