:100000000C9434000C943E000C943E000C943E0082
:100010000C943E000C943E000C943E000C943E0068
:100020000C943E000C943E000C943E000C943E0058
:100030000C943E000C943E000C943E000C943E0048
:100040000C943E000C943E000C943E000C943E0038
:100050000C943E000C943E000C943E000C943E0028
:100060000C943E000C943E0011241FBECFEFD8E04C
:10007000DEBFCDBF0E9440000C94E0000C94000055
:10008000DF93CF9300D0CDB7DEB7EAE2F0E08FEF99
:10009000808381E08A8381E08983ABE2B0E0EBE298
:1000A000F0E08081982FEBE2F0E080818095892359
:1000B0008C93ABE2B0E0EBE2F0E08081282F8A8104
:1000C000882F90E0880F991F822B8C938981882339
:1000D00039F08A81882F90E0880F991F8A8303C0A6
:1000E0008A8186958A838A81803409F419828A817B
:1000F000823011F481E0898368EC70E080E090E068
:100100000E948300CACFDF93CF9300D000D00F921C
:10011000CDB7DEB769837A838B839C8389819A818B
:10012000AB81BC8123E731E040E050E0BC01CD0170
:100130000E94C100DC01CB0189839A83AB83BC831D
:100140001D8289819A81AB81BC810097A105B1058F
:1001500011F081E08D8389819A81AB81BC81019707
:10016000A109B10989839A83AB83BC838D818823DC
:1001700039F70F900F900F900F900F90CF91DF9164
:100180000895629FD001739FF001829FE00DF11DE1
:10019000649FE00DF11D929FF00D839FF00D749F01
:1001A000F00D659FF00D9927729FB00DE11DF91FAD
:1001B000639FB00DE11DF91FBD01CF01112408950A
:0401C000F894FFCFE1
:00000001FF
