:100000000C9434000C9446000C9446000C9446006A
:100010000C9446000C9446000C9446000C94460048
:100020000C9446000C9446000C9446000C94FF017E
:100030000C9446000C9446000C9446000C94460028
:100040000C9446000C9446000C9447020C94460015
:100050000C9446000C9446000C9446000C94460008
:100060000C9446000C94460011241FBECFEFD8E03C
:10007000DEBFCDBF21E0A0E0B1E001C01D92A630FF
:10008000B207E1F70E949A020C94F5040C94000068
:100090000F931F93CF93DF93CDB7DEB728970FB69B
:1000A000F894DEBF0FBECDBF69837A838B839C83B8
:1000B00089819A81AB81BC81880F991FAA1FBB1FC0
:1000C000880F991FAA1FBB1F880F991FAA1FBB1F4C
:1000D000880F991FAA1FBB1F8C019D0180E094E22D
:1000E000A4EFB0E08D839E83AF83B8876D817E815E
:1000F0008F819885A90198010E945A03DA01C901EC
:10010000282F84EC90E02150DC012C9385EC90E0CA
:10011000FC01108281EC90E0DC012C9181EC90E0FC
:100120002869FC01208382EC90E026E0DC012C931E
:10013000000028960FB6F894DEBF0FBECDBFDF914A
:10014000CF911F910F910895CF93DF930F92CDB769
:10015000DEB78983000080EC90E0FC018081882F6D
:1001600090E080729927892BB1F386EC90E0298189
:10017000FC01208300000F90DF91CF910895CF9371
:10018000DF9300D00F92CDB7DEB79B838A831982AD
:100190000EC0898191E0980F9983882F90E02A8181
:1001A0003B81820F931FFC0180810E94A400898102
:1001B000882F90E02A813B81820F931FFC01808170
:1001C000882339F780E20E94A40000000F900F906E
:1001D0000F90DF91CF910895CF93DF93CDB7DEB726
:1001E000000080EC90E0FC0180818823D4F786EC4D
:1001F00090E0FC018081DF91CF910895CF93DF9350
:1002000000D0CDB7DEB79A8389830E94EC00282FF7
:1002100089819A81FC01208389819A819C012F5FC9
:100220003F4F3A832983FC0180818A3071F78981AD
:100230009A8101979A83898389819A81FC0110822E
:1002400000000F900F90DF91CF910895CF93DF932F
:10025000CDB7DEB78DE00E94A4008AE00E94A40022
:100260000000DF91CF910895CF93DF9300D000D0AD
:10027000CDB7DEB79A8389837C836B8349815A81AA
:10028000CA01929582958F7089279F7089279C015A
:10029000A7E4B3E00E947C03969587959695879591
:1002A0009695879560E177E2869F9001879F300D54
:1002B000969F300D1124CA01821B930B969587954A
:1002C00096958795969587959C01A5ECB0E20E943E
:1002D0007C03929582958F7089279F708927805D16
:1002E000282F8B819C81FC01208349815A81CA017E
:1002F0009695879596958795969587959C01A5ECFB
:10030000B0E20E947C03929582958F7089279F703E
:10031000892768EE73E0869F9001879F300D969F36
:10032000300D1124CA01821B930B969587959695E3
:1003300087959C01ABE7B4E10E947C039695879575
:1003400020E3280F8B819C810196FC012083498149
:100350005A81CA0196958795969587959C01ABE73A
:10036000B4E10E947C039695879564E6689F9001AE
:10037000699F300D1124CA01821B930B9C01ADECC7
:10038000BCEC0E947C0396958795969587959695EB
:10039000879520E3280F8B819C810296FC012083A6
:1003A00049815A819A01ADECBCEC0E947C039C010E
:1003B000369527953695279536952795C901880F47
:1003C000991F880F991F820F931F880F991F9A01F9
:1003D000281B390B822F20E3280F8B819C810396E9
:1003E000FC0120838B819C810496FC01108200001B
:1003F0000F900F900F900F90DF91CF9108951F9263
:100400000F920FB60F9211242F933F934F935F9348
:100410006F937F938F939F93AF93BF93EF93FF93CC
:10042000CF93DF930F92CDB7DEB78FE590E0FC015D
:10043000808189838FE590E0FC0120818FE590E049
:100440002F77FC01208380910001813031F481E01D
:1004500091E00E94BF000E9426018FE590E0298173
:10046000FC01208300000F90DF91CF91FF91EF916D
:10047000BF91AF919F918F917F916F915F914F91BC
:100480003F912F910F900FBE0F901F9018951F92C4
:100490000F920FB60F9211242F933F934F935F93B8
:1004A0006F937F938F939F93AF93BF93EF93FF933C
:1004B000CF93DF9300D0CDB7DEB78FE590E0FC019E
:1004C000808189838FE590E0FC0120818FE590E0B9
:1004D0002F77FC0120830E94EC008A838A81882F79
:1004E00090E08236910521F08337910521F007C015
:1004F0001092000104C081E08093000100008FE5AC
:1005000090E02981FC01208300000F900F90DF9183
:10051000CF91FF91EF91BF91AF919F918F917F917B
:100520006F915F914F913F912F910F900FBE0F9060
:100530001F901895CF93DF93CDB7DEB767970FB6AF
:10054000F894DEBF0FBECDBF8FE590E0DC012C91AB
:100550008FE590E02068FC01208360E875E280E090
:1005600090E00E9448008AE290E0DC012C918AE24F
:1005700090E02066FC01208384E490E023EADC0123
:100580002C9385E490E021E0FC01208381E890E059
:100590002DE0DC012C9388E890E024E83EE1FC01AA
:1005A000318320838FE690E0DC012C918FE690E090
:1005B0002260FC0120838AE790E027EFDC012C9386
:1005C0008BE790E0FC01108200008AE790E0DC01FC
:1005D0008C91882F90E080719927892BB1F38AE75D
:1005E00090E0FC0120818AE790E02061DC012C93FF
:1005F00088E790E0FC01808191819A8389838981D9
:100600009A8187309140E0F089819A81803623E099
:10061000920710F08FE593E0875091409C0140E0F5
:1006200050E02C873D874E875F876C857D858E8562
:100630009F850E94BA03688779878A879B8704C051
:10064000188619861A861B862AE939E949ED5EE380
:10065000688579858A859B850E942004688B798BC3
:100660008A8B9B8B88899989AA89BB898C839D8376
:10067000AE83BF836C817D818E819F810E948B03BD
:100680006C8B7D8B8E8B9F8B9C899B8388E490E009
:100690002B81DC012C9387E490E02B812095FC01D9
:1006A000208389819A814AE050E061E071E00E94F4
:1006B000B5048ACFA1E21A2EAA1BBB1BFD010DC0F7
:1006C000AA1FBB1FEE1FFF1FA217B307E407F50702
:1006D00020F0A21BB30BE40BF50B661F771F881FDE
:1006E000991F1A9469F760957095809590959B0174
:1006F000AC01BD01CF010895A29FB001B39FC0011D
:10070000A39F700D811D1124911DB29F700D811D3D
:100710001124911D08950E94FF0388F09F5798F0BF
:10072000B92F9927B751B0F0E1F0660F771F881FF6
:10073000991F1AF0BA95C9F714C0B13091F00E9410
:100740001904B1E008950C941904672F782F8827B5
:10075000B85F39F0B93FCCF3869577956795B39537
:10076000D9F73EF490958095709561957F4F8F4FA6
:100770009F4F0895E89409C097FB3EF490958095AB
:10078000709561957F4F8F4F9F4F9923A9F0F92F57
:1007900096E9BB279395F695879577956795B795D5
:1007A000F111F8CFFAF4BB0F11F460FF1BC06F5FBB
:1007B0007F4F8F4F9F4F16C0882311F096E911C0CD
:1007C000772321F09EE8872F762F05C0662371F0EE
:1007D00096E8862F70E060E02AF09A95660F771F02
:1007E000881FDAF7880F9695879597F9089557FD32
:1007F0009058440F551F59F05F3F71F04795880F8F
:1008000097FB991F61F09F3F79F087950895121625
:1008100013061406551FF2CF4695F1DF08C01616D1
:1008200017061806991FF1CF869571056105089482
:100830000895E894BB2766277727CB0197F9089599
:100840000E9433040C94A4040E94960438F00E9481
:100850009D0420F0952311F00C948D040C949304C6
:1008600011240C941A040E94F70370F3959FC1F3AE
:10087000950F50E0551F629FF001729FBB27F00D4E
:10088000B11D639FAA27F00DB11DAA1F649F6627A3
:10089000B00DA11D661F829F2227B00DA11D621FF2
:1008A000739FB00DA11D621F839FA00D611D221FAC
:1008B000749F3327A00D611D231F849F600D211D90
:1008C000822F762F6A2F11249F5750409AF0F1F013
:1008D00088234AF0EE0FFF1FBB1F661F771F881F7C
:1008E00091505040A9F79E3F510580F00C948D0423
:1008F0000C941A045F3FE4F3983ED4F38695779501
:100900006795B795F795E7959F5FC1F7FE2B880F21
:10091000911D9695879597F9089597F99F6780E8B7
:1009200070E060E008959FEF80EC089500240A9441
:100930001616170618060906089500240A941216BA
:100940001306140605060895092E0394000C11F4ED
:10095000882352F0BB0F40F4BF2B11F460FF04C09A
:100960006F5F7F4F8F4F9F4F08954532510520F4A1
:10097000423010F00C94C004FB011082CB010895AA
:10098000BB274A3031F4992322F4BDE2909581953A
:100990009F4F0C94CC04BB27FB015527AA27880F37
:1009A000991FAA1FA41710F0A41B83955051B9F7E3
:1009B000A05DAA3308F0A95DA193009779F7B11162
:1009C000B1931192CB010C94E504DC01FC01672F7B
:1009D00071917723E1F7329704C07C916D93708316
:0E09E0006291AE17BF07C8F30895F894FFCFD9
:00000001FF
