:100000000C9434000C9449000C9449000C94490061
:100010000C9449000C9449000C9449000C9449003C
:100020000C9449000C9449000C9449000C9449002C
:100030000C9449000C9449000C9449000C9449001C
:100040000C9449000C9449000C9449000C9449000C
:100050000C9449000C9449000C9449000C944900FC
:100060000C9449000C94490011241FBECFEFD8E036
:10007000DEBFCDBF11E0A0E0B1E0E4EAF2E002C0F3
:1000800005900D92AA30B107D9F70E9401010C9496
:1000900050010C940000DF93CF9300D000D00F925A
:1000A000CDB7DEB769837A838B839C8389819A81FC
:1000B000AB81BC8123E731E040E050E0BC01CD01E1
:1000C0000E942501DC01CB0189839A83AB83BC8329
:1000D0001D8289819A81AB81BC810097A105B10500
:1000E00011F081E08D8389819A81AB81BC81019778
:1000F000A109B10989839A83AB83BC838D8188234D
:1001000039F70F900F900F900F900F90CF91DF91D4
:100110000895DF93CF9300D00F92CDB7DEB71B8247
:100120001A82198220C0E6E2F0E08081882F90E0F8
:10013000098002C0959587950A94E2F781709070C6
:10014000009761F481E090E0098002C0880F991F58
:100150000A94E2F7982F8B81890F8B8389819A818A
:1001600001969A83898389819A8184309105DCF292
:100170008B810F900F900F90CF91DF910895DF93B7
:10018000CF930F92CDB7DEB78983EBE2F0E0108218
:10019000E5E2F0E010828981882F90E0FC01E050D8
:1001A000FF4F8081882F90E081709070882339F014
:1001B000A5E2B0E0E5E2F0E0808181608C93898186
:1001C000882F90E0FC01E050FF4F8081882F90E065
:1001D00082709070009739F0A5E2B0E0E5E2F0E0BF
:1001E000808182608C93ABE2B0E08981882F90E0BF
:1001F000FC01E050FF4F80818C930F90CF91DF91F5
:100200000895DF93CF930F92CDB7DEB7EAE2F0E027
:100210008CEF8083E4E2F0E083E08083E7E2F0E0CB
:100220001082E8E2F0E08FE080831982EBE2F0E0F8
:1002300010820E9489009AE0692F0E944401892F50
:10024000898389810E94BF00F4CF629FD001739F90
:10025000F001829FE00DF11D649FE00DF11D929F62
:10026000F00D839FF00D749FF00D659FF00D9927A1
:10027000729FB00DE11DF91F639FB00DE11DF91FC5
:10028000BD01CF0111240895991B79E004C0991F85
:10029000961708F0961B881F7A95C9F780950895E0
:0402A000F894FFCF00
:0A02A400F7A4DDEDAEEBFBA7FFEFC2
:00000001FF
