:100000000C9434000C943E000C943E000C943E0082
:100010000C943E000C943E000C943E000C943E0068
:100020000C943E000C943E000C943E000C943E0058
:100030000C943E000C943E000C943E000C943E0048
:100040000C943E000C943E000C943E000C943E0038
:100050000C943E000C943E000C943E000C943E0028
:100060000C943E000C943E0011241FBECFEFD8E04C
:10007000DEBFCDBF0E9440000C9403020C94000030
:10008000CF93DF93CDB7DEB78AE290E024E9FC019D
:1000900020838BE290E024E9FC01208360E070E49F
:1000A0008CE196E40E945F008BE290E0FC011082FC
:1000B00060E070E48CE196E40E945F00EACFCF93A9
:1000C000DF93CDB7DEB72C970FB6F894DEBF0FBE27
:1000D000CDBF69837A838B839C832AE037ED4BE322
:1000E00051E469817A818B819C810E9472016D83C8
:1000F0007E838F8398878D819E81AF81B885898328
:100100009A83AB83BC8316C020E030E040E85FE315
:1001100069817A818B819C810E94AF0069877A878F
:100120008B879C8789859A85AB85BC8589839A83D3
:10013000AB83BC8320E030E0A90169817A818B81A7
:100140009C810E946D018823FCF600002C960FB65E
:10015000F894DEBF0FBECDBFDF91CF910895505808
:10016000BB27AA270E94C7000C9433010E942501D7
:1001700038F00E942C0120F039F49F3F19F426F446
:100180000C9422010EF4E095E7FB0C941C01E92F7E
:100190000E94440158F3BA17620773078407950752
:1001A00020F079F4A6F50C9466010EF4E0950B2E80
:1001B000BA2FA02D0B01B90190010C01CA01A001B9
:1001C0001124FF27591B99F0593F50F4503E68F114
:1001D0001A16F040A22F232F342F4427585FF3CF55
:1001E000469537952795A795F0405395C9F77EF426
:1001F0001F16BA0B620B730B840BBAF09150A1F06F
:10020000FF0FBB1F661F771F881FC2F70EC0BA0FF4
:10021000621F731F841F48F4879577956795B7957C
:10022000F7959E3F08F0B0CF9395880F08F0992777
:10023000EE0F97958795089597F99F6780E870E08E
:1002400060E008959FEF80EC089500240A9416164C
:10025000170618060906089500240A9412161306B4
:10026000140605060895092E0394000C11F4882342
:1002700052F0BB0F40F4BF2B11F460FF04C06F5F5E
:100280007F4F8F4F9F4F089557FD9058440F551F34
:1002900059F05F3F71F04795880F97FB991F61F008
:1002A0009F3F79F087950895121613061406551F7F
:1002B000F2CF4695F1DF08C0161617061806991FEB
:1002C000F1CF86957105610508940895E894BB27E0
:1002D00066277727CB0197F908950E94DF0108F47C
:1002E0008FEF08950E9485010C9433010E9425012F
:1002F00038F00E942C0120F0952311F00C941C0181
:100300000C94220111240C9467010E94440170F3A3
:10031000959FC1F3950F50E0551F629FF001729FAA
:10032000BB27F00DB11D639FAA27F00DB11DAA1FB9
:10033000649F6627B00DA11D661F829F2227B00D06
:10034000A11D621F739FB00DA11D621F839FA00D91
:10035000611D221F749F3327A00D611D231F849FE1
:10036000600D211D822F762F6A2F11249F57504038
:100370009AF0F1F088234AF0EE0FFF1FBB1F661FB3
:10038000771F881F91505040A9F79E3F510580F07C
:100390000C941C010C9467015F3FE4F3983ED4F386
:1003A000869577956795B795F795E7959F5FC1F720
:1003B000FE2B880F911D9695879597F90895990FB3
:1003C0000008550FAA0BE0E8FEEF16161706E8071F
:1003D000F907C0F012161306E407F50798F0621B40
:1003E000730B840B950B39F40A2661F0232B242B15
:1003F000252B21F408950A2609F4A140A6958FEF34
:0A040000811D811D0895F894FFCFBF
:00000001FF
