:100000000C9434000C943E000C943E000C943E0082
:100010000C943E000C943E000C943E000C943E0068
:100020000C943E000C943E000C943E000C943E0058
:100030000C943E000C943E000C943E000C943E0048
:100040000C943E000C943E000C943E000C943E0038
:100050000C943E000C943E000C943E000C943E0028
:100060000C943E000C943E0011241FBECFEFD8E04C
:10007000DEBFCDBF0E9484010C9415020C940000D9
:10008000DF93CF93CDB7DEB7E4ECF0E087E6808373
:10009000E5ECF0E01082A1ECB0E0E1ECF0E0808172
:1000A00088618C93A2ECB0E0E2ECF0E080818660A5
:1000B0008C93CF91DF910895DF93CF930F92CDB7BB
:1000C000DEB78983E0ECF0E08081882F90E08072D9
:1000D00090700097B9F3E6ECF0E0898180830F908F
:1000E000CF91DF910895DF93CF9300D00F92CDB7DA
:1000F000DEB79B838A83198210C08981282F30E064
:100100008A819B81FC01E20FF31F8081982F8981F6
:100110008F5F8983892F0E945C008981282F30E0BE
:100120008A819B81FC01E20FF31F8081882329F7DC
:1001300080E20E945C000F900F900F90CF91DF91B2
:100140000895DF93CF93CDB7DEB78DE00E945C00BA
:100150008AE00E945C00CF91DF910895DF93CF93F6
:1001600000D000D00F92CDB7DEB769837A838B833E
:100170009C8389819A81AB81BC8123E731E040E097
:1001800050E0BC01CD010E94B101DC01CB018983AB
:100190009A83AB83BC831D8289819A81AB81BC81A8
:1001A0000097A105B10511F081E08D8389819A81C5
:1001B000AB81BC810197A109B10989839A83AB8383
:1001C000BC838D81882339F70F900F900F900F908B
:1001D0000F90CF91DF910895DF93CF9300D0CDB7EB
:1001E000DEB78983E6E2F0E08081282F30E0898164
:1001F000882F90E0A90102C0559547958A95E2F7AE
:10020000CA0181709070009719F451E05A8301C0BF
:100210001A828A810F900F90CF91DF910895DF931A
:10022000CF930F92CDB7DEB78983AAE7B0E0EAE7B4
:10023000F0E0808187608C93AAE7B0E0EAE7F0E025
:10024000808180688C93ACE7B0E0ECE7F0E08081DF
:1002500080668C93ACE7B0E0ECE7F0E090818981B8
:10026000892B8C93AAE7B0E0EAE7F0E08081806414
:100270008C93EAE7F0E08081882F90E080749070A2
:100280000097B9F7E9E7F0E080810F90CF91DF9117
:100290000895DF93CF930F92CDB7DEB78983AAE796
:1002A000B0E0EAE7F0E0808187608C93AAE7B0E0F5
:1002B000EAE7F0E0808180688C93ACE7B0E0ECE79F
:1002C000F0E0808180648C93ACE7B0E0ECE7F0E094
:1002D00090818981892B8C93AAE7B0E0EAE7F0E06E
:1002E000808180648C93EAE7F0E08081882F90E041
:1002F000807490700097B9F7E8E7F0E08081918111
:100300000F90CF91DF910895DF93CF9300D000D06D
:1003100000D0CDB7DEB7EAE2F0E08CE180830E9446
:10032000400080E00E940F0189838981882F90E03E
:100330009E012E5F3F4FB9014AE050E00E94D0017C
:10034000EBE2F0E084E08083CE0102960E9473002D
:100350000E94A10062E370E080E090E00E94AE00A5
:10036000E0CF629FD001739FF001829FE00DF11DED
:10037000649FE00DF11D929FF00D839FF00D749F1F
:10038000F00D659FF00D9927729FB00DE11DF91FCB
:10039000639FB00DE11DF91FBD01CF011124089528
:1003A000FB019F01E8944230C4F04532B4F44A3076
:1003B00029F497FB1EF4909581959F4F642F772722
:1003C0000E940102805D8A330CF0895D8193CB012C
:1003D0000097A1F716F45DE251931082C9010C94C5
:1003E000F101DC01FC01672F71917723E1F732976E
:1003F00004C07C916D9370836291AE17BF07C8F300
:100400000895AA1BBB1B51E107C0AA1FBB1FA6175B
:10041000B70710F0A61BB70B881F991F5A95A9F7AD
:0E04200080959095BC01CD010895F894FFCF12
:00000001FF
