:100000000C9434000C943E000C943E000C943E0082
:100010000C943E000C943E000C943E000C943E0068
:100020000C943E000C943E000C943E000C943E0058
:100030000C943E000C943E000C943E000C943E0048
:100040000C943E000C943E000C943E000C943E0038
:100050000C943E000C943E000C943E000C943E0028
:100060000C943E000C943E0011241FBECFEFD8E04C
:10007000DEBFCDBF0E94F8000C943E010C9400003E
:10008000DF93CF93CDB7DEB7E4ECF0E087E6808373
:10009000E5ECF0E01082A1ECB0E0E1ECF0E0808172
:1000A00088618C93E2ECF0E086E08083CF91DF9171
:1000B0000895DF93CF930F92CDB7DEB78983E0EC3D
:1000C000F0E08081882F90E0807290700097B9F303
:1000D000E6ECF0E0898180830F90CF91DF91089565
:1000E000DF93CF9300D00F92CDB7DEB79B838A8387
:1000F000198210C08981282F30E08A819B81FC0100
:10010000E20FF31F8081982F89818F5F8983892F68
:100110000E9459008981282F30E08A819B81FC014F
:10012000E20FF31F8081882329F780E20E945900A3
:100130000F900F900F90CF91DF910895DF93CF93A1
:10014000CDB7DEB7E0ECF0E080818823DCF7E6ECA9
:10015000F0E08081CF91DF910895DF93CF93CDB709
:10016000DEB78DE00E9459008AE00E945900CF91CD
:10017000DF910895DF93CF9300D000D00F92CDB7D9
:10018000DEB769837A838B839C8389819A81AB8173
:10019000BC8123E731E040E050E0BC01CD010E948A
:1001A0001F01DC01CB0189839A83AB83BC831D8251
:1001B00089819A81AB81BC810097A105B10511F0BD
:1001C00081E08D8389819A81AB81BC810197A109EE
:1001D000B10989839A83AB83BC838D81882339F7E6
:1001E0000F900F900F900F900F90CF91DF91089587
:1001F000DF93CF93CDB7DEB7EAE2F0E08CE1808306
:100200000E944000E0ECF0E08081882F90E0807256
:1002100090700097B9F3ABE2B0E0E6ECF0E08081DB
:10022000882F90E09C012053304081E090E0022E26
:1002300002C0880F991F0A94E2F78C93E3CF629F64
:10024000D001739FF001829FE00DF11D649FE00DCE
:10025000F11D929FF00D839FF00D749FF00D659F2F
:10026000F00D9927729FB00DE11DF91F639FB00D2E
:10027000E11DF91FBD01CF0111240895F894FFCFAE
:00000001FF
