:100000000C9434000C9449000C9449000C94490061
:100010000C9449000C9449000C9449000C9449003C
:100020000C9449000C9449000C9449000C9449002C
:100030000C9449000C9449000C9449000C9449001C
:100040000C9449000C9449000C9449000C9449000C
:100050000C9449000C9449000C9449000C944900FC
:100060000C9449000C94490011241FBECFEFD8E036
:10007000DEBFCDBF11E0A0E0B1E0EAE8F3E002C0EE
:1000800005900D92AA30B107D9F70E9463010C9434
:10009000C3010C940000DF93CF9300D000D00F92E7
:1000A000CDB7DEB769837A838B839C8389819A81FC
:1000B000AB81BC8123E731E040E050E0BC01CD01E1
:1000C0000E94A401DC01CB0189839A83AB83BC83AA
:1000D0001D8289819A81AB81BC810097A105B10500
:1000E00011F081E08D8389819A81AB81BC81019778
:1000F000A109B10989839A83AB83BC838D8188234D
:1001000039F70F900F900F900F900F90CF91DF91D4
:100110000895DF93CF9300D0CDB7DEB78983E6E2B1
:10012000F0E08081282F30E08981882F90E0A901BC
:1001300002C0559547958A95E2F7CA018170907083
:10014000009719F451E05A8301C01A828A810F90F6
:100150000F90CF91DF910895DF93CF930F92CDB79A
:10016000DEB78983AAE7B0E0EAE7F0E08081876044
:100170008C93AAE7B0E0EAE7F0E0808180688C9396
:10018000ACE7B0E0ECE7F0E0808180668C93ACE710
:10019000B0E0ECE7F0E090818981892B8C93AAE7AD
:1001A000B0E0EAE7F0E0808180648C93EAE7F0E079
:1001B0008081882F90E0807490700097B9F7E9E70C
:1001C000F0E080810F90CF91DF910895DF93CF937E
:1001D0000F92CDB7DEB78983AAE7B0E0EAE7F0E097
:1001E000808187608C93AAE7B0E0EAE7F0E0808145
:1001F00080688C93ACE7B0E0ECE7F0E0808180644D
:100200008C93ACE7B0E0ECE7F0E090818981892B3A
:100210008C93AAE7B0E0EAE7F0E0808180648C93F9
:10022000EAE7F0E08081882F90E08074907000977A
:10023000B9F7E8E7F0E0808191810F90CF91DF91ED
:100240000895DF93CF930F92CDB7DEB78983EBE2AA
:10025000F0E01082E5E2F0E010828981882F90E0E2
:10026000FC01E050FF4F8081882F90E081709070FA
:10027000882339F0A5E2B0E0E5E2F0E0808181601A
:100280008C938981882F90E0FC01E050FF4F8081A2
:10029000882F90E082709070009739F0A5E2B0E06E
:1002A000E5E2F0E0808182608C93ABE2B0E089818E
:1002B000882F90E0FC01E050FF4F80818C930F90DD
:1002C000CF91DF910895DF93CF9300D000D0CDB7C9
:1002D000DEB7EAE2F0E08FEF8083E4E2F0E083E073
:1002E0008083E7E2F0E01082E8E2F0E081E08083E2
:1002F0001C8281E08B8381E08A8381E089836AE0CC
:1003000070E080E090E00E944B0080E00E94890055
:100310008C838C81882339F08B81882321F48A8116
:1003200091E089278A838C818B838A81882331F0AD
:10033000898199819F5F99830E94210189818630FB
:10034000F1F681E08983DBCF629FD001739FF001DA
:10035000829FE00DF11D649FE00DF11D929FF00D55
:10036000839FF00D749FF00D659FF00D9927729F8C
:10037000B00DE11DF91F639FB00DE11DF91FBD0117
:0A038000CF0111240895F894FFCF77
:0A038A00F7A4DDEDAEEBFBA7FFEFDB
:00000001FF
