:100000000C9434000C943E000C943E000C943E0082
:100010000C943E000C943E000C943E000C943E0068
:100020000C943E000C943E000C943E000C943E0058
:100030000C943E000C943E000C943E000C943E0048
:100040000C943E000C943E000C943E000C943E0038
:100050000C943E000C943E000C943E000C943E0028
:100060000C943E000C943E0011241FBECFEFD8E04C
:10007000DEBFCDBF0E947E000C941D010C940000D9
:10008000DF93CF9300D000D00F92CDB7DEB7698356
:100090007A838B839C8389819A81AB81BC8123E79E
:1000A00031E040E050E0BC01CD010E94FE00DC01E7
:1000B000CB0189839A83AB83BC831D8289819A811A
:1000C000AB81BC810097A105B10511F081E08D8362
:1000D00089819A81AB81BC810197A109B10989838A
:1000E0009A83AB83BC838D81882339F70F900F905F
:1000F0000F900F900F90CF91DF910895DF93CF93E2
:10010000CDB7DEB7EAE2F0E084E08083E7E2F0E03A
:100110001082E8E2F0E08FE08083ABE2B0E0EBE257
:10012000F0E0808184608C930E94C800282F30E02A
:1001300083E490E0AC01249FC001259F900D349F83
:10014000900D1124AA2797FDA095BA2FBC01CD01CF
:100150000E944000ABE2B0E0EBE2F0E08081887FFB
:100160008C930E94C800282F30E083E490E0AC011B
:10017000249FC001259F900D349F900D1124AA2724
:1001800097FDA095BA2FBC01CD010E944000C5CFBC
:10019000DF93CF9300D00F92CDB7DEB71B821A82C8
:1001A000198220C0E6E2F0E08081882F90E009808B
:1001B00002C0959587950A94E2F781709070009738
:1001C00061F481E090E0098002C0880F991F0A94D1
:1001D000E2F7982F8B81890F8B8389819A81019611
:1001E0009A83898389819A8184309105DCF28B819D
:1001F0000F900F900F90CF91DF910895629FD001E3
:10020000739FF001829FE00DF11D649FE00DF11DD1
:10021000929FF00D839FF00D749FF00D659FF00D80
:100220009927729FB00DE11DF91F639FB00DE11D6D
:0E023000F91FBD01CF0111240895F894FFCFEE
:00000001FF
