:100000000C9434000C943E000C943E000C943E0082
:100010000C943E000C943E000C943E000C943E0068
:100020000C943E000C943E000C943E000C943E0058
:100030000C943E000C943E000C943E000C943E0048
:100040000C943E000C943E000C943E000C943E0038
:100050000C943E000C943E000C943E000C943E0028
:100060000C943E000C943E0011241FBECFEFD8E04C
:10007000DEBFCDBF0E9476000C94B2010C9400004C
:10008000DF93CF9300D00F92CDB7DEB71B821A82D9
:10009000198220C0E6E2F0E08081882F90E009809C
:1000A00002C0959587950A94E2F781709070009749
:1000B00061F481E090E0098002C0880F991F0A94E2
:1000C000E2F7982F8B81890F8B8389819A81019622
:1000D0009A83898389819A8184309105DCF28B81AE
:1000E0000F900F900F90CF91DF910895DF93CF93F2
:1000F00000D00F92CDB7DEB7EAE2F0E01082EBE27B
:10010000F0E08FEF8083E7E2F0E01082E8E2F0E0D9
:100110008FE280830E94EA00E6E2F0E08081882F8F
:1001200090E0807290700097B9F30E944000882F91
:1001300090E09E012F5F3F4FB9014AE050E00E94DE
:100140006D01CE0101960E941D0164E670E080E021
:1001500090E00E94AC00E0CFDF93CF9300D000D0BE
:100160000F92CDB7DEB769837A838B839C838981B5
:100170009A81AB81BC8123E731E040E050E0BC01D3
:10018000CD010E944E01DC01CB0189839A83AB83B0
:10019000BC831D8289819A81AB81BC810097A105B6
:1001A000B10511F081E08D8389819A81AB81BC8199
:1001B0000197A109B10989839A83AB83BC838D819F
:1001C000882339F70F900F900F900F900F90CF91D9
:1001D000DF910895DF93CF93CDB7DEB7E4ECF0E085
:1001E00087E68083E5ECF0E01082A1ECB0E0E1EC82
:1001F000F0E0808188618C93A2ECB0E0E2ECF0E06A
:10020000808186608C93CF91DF910895DF93CF93A7
:100210000F92CDB7DEB78983E0ECF0E08081882FC4
:1002200090E0807290700097B9F3E6ECF0E089817D
:1002300080830F90CF91DF910895DF93CF9300D00B
:100240000F92CDB7DEB79B838A83198210C0898154
:10025000282F30E08A819B81FC01E20FF31F80810F
:10026000982F89818F5F8983892F0E940601898158
:10027000282F30E08A819B81FC01E20FF31F8081EF
:10028000882329F78DE00E9406018AE00E9406017A
:100290000F900F900F90CF91DF910895629FD00142
:1002A000739FF001829FE00DF11D649FE00DF11D31
:1002B000929FF00D839FF00D749FF00D659FF00DE0
:1002C0009927729FB00DE11DF91F639FB00DE11DCD
:1002D000F91FBD01CF0111240895FB019F01E8948E
:1002E0004230C4F04532B4F44A3029F497FB1EF48E
:1002F000909581959F4F642F77270E949E01805D86
:100300008A330CF0895D8193CB010097A1F716F435
:100310005DE251931082C9010C948E01DC01FC0155
:10032000672F71917723E1F7329704C07C916D9329
:1003300070836291AE17BF07C8F30895AA1BBB1B59
:1003400051E107C0AA1FBB1FA617B70710F0A61BD5
:10035000B70B881F991F5A95A9F780959095BC01F6
:08036000CD010895F894FFCFD0
:00000001FF
