:100000000C9434000C9449000C9449000C94490061
:100010000C9449000C9449000C9449000C9449003C
:100020000C9449000C9449000C9449000C9449002C
:100030000C9449000C9449000C9449000C9449001C
:100040000C9449000C9449000C9449000C9449000C
:100050000C9449000C9449000C9449000C944900FC
:100060000C9449000C94490011241FBECFEFD8E036
:10007000DEBFCDBF11E0A0E0B1E0ECE4FAE202C0E7
:1000800005900D92A230B107D9F70E9487130C9406
:1000900024150C940000CF93DF93CDB7DEB7C8547E
:1000A000D1090FB6F894DEBF0FBECDBF85E290E058
:1000B000DC012C9185E290E02061FC01208380E04E
:1000C00090E0A0E8BFE389839A83AB83BC832BEAEB
:1000D0003AEA4AEA50E469817A818B819C810E94E4
:1000E000B7146DA37EA38FA398A78DA19EA1AFA1E6
:1000F000B8A58D839E83AF83B88720E030E040E8C9
:1001000050E469817A818B819C810E94B71469A730
:100110007AA78BA79CA789A59AA5ABA5BCA589871B
:100120009A87AB87BC8720E030E040E85FE36D81D1
:100130007E818F8198850E94971388231CF481E02B
:100140008D87E5C020E03FEF4FE757E469857A856A
:100150008B859C850E94B21418160CF09EC020E07E
:1001600030E04AE754E469817A818B819C810E9466
:100170009C136DA77EA78FA798AB8DA59EA5AFA555
:10018000B8A98E879F87A88BB98B20E030E04AE71B
:1001900055E46E857F85888999890E94B71469AB7B
:1001A0007AAB8BAB9CAB89A99AA9ABA9BCA98A8B6A
:1001B0009B8BAC8BBD8B20E030E040E85FE36A892D
:1001C0007B898C899D890E94971388232CF481E078
:1001D00090E09F8B8E8B56C020E03FEF4FE757E4B7
:1001E0006A897B898C899D890E94B2141816D4F57E
:1001F00020E030E040E251E46E857F85888999896E
:100200000E94B7146DAB7EAB8FAB98AF8DA99EA942
:10021000AFA9B8AD89A39AA3ABA3BCA369A17AA1E6
:100220008BA19CA10E940E1469AF7AAF8BAF9CAFDB
:10023000A9ADBAADBF8BAE8B10C080E991E0998FAC
:10024000888F888D998D0197F1F7998F888F00009D
:100250008E899F8901979F8B8E8B8E899F89892B91
:1002600061F755C06A897B898C899D890E940E142B
:1002700021966CAF7DAF8EAF9FAF2197EDADFEADF8
:10028000FF8BEE8B8E899F899B8F8A8F8A8D9B8DAA
:100290000197F1F79B8F8A8F3AC020E030E04FE75B
:1002A00053E46D817E818F8198850E94B214181667
:1002B000F4F469857A858B859C850E940E142596B9
:1002C0006CAF7DAF8EAF9FAF259723968EAD9FAD60
:1002D00023979D8F8C8F8C8D9D8D9F8F8E8F8E8D74
:1002E0009F8D0197F1F79F8F8E8F000017C06D8152
:1002F0007E818F8198850E940E1429966CAF7DAF08
:100300008EAF9FAF299726969FAD26979D878D85A7
:1003100088A388A18A95F1F788A3000085E290E080
:10032000DC012C9185E290E02F7EFC01208300000F
:10033000C85BDF4F0FB6F894DEBF0FBECDBFDF91B5
:10034000CF910895CF93DF9300D00F92CDB7DEB752
:100350008A836B838B81882351F08BE290E0FC01D0
:1003600020818BE290E02460FC01208309C08BE2B5
:1003700090E0FC0120818BE290E02B7FFC01208348
:100380008BE290E0FC0120818BE290E0277FFC0172
:10039000208384E290E0FC01208184E290E02F60E1
:1003A000FC01208385E290E0FC018081807F8983CD
:1003B0008A8182958F70982F8981292F282B85E239
:1003C00090E0FC0120830E944B008A81982F9F704F
:1003D0008981292F282B85E290E0FC0120830E944F
:1003E0004B0085E290E029812F60FC012083000012
:1003F0000F900F900F90DF91CF9108950F931F935F
:10040000CF93DF93CDB7DEB7CA5DD1090FB6F894AD
:10041000DEBF0FBECDBF9E012E593F4FD9018C9339
:10042000CE018E599F4FFC018081882351F08BE2D1
:1004300090E0DC012C918BE290E02460FC012083B1
:1004400009C08BE290E0DC012C918BE290E02B7FE5
:10045000FC0120838BE290E0DC012C918BE290E0A8
:100460002860FC01208384E290E0DC012C9184E28E
:1004700090E0207FFC01208385E290E0DC012C915C
:1004800085E290E02061FC0120839E012E5B3F4FBE
:1004900080E090E0A0E8BFE3F90180839183A2832C
:1004A000B3838E010A5B1F4FCE018E5B9F4F2BEAF9
:1004B0003AEA4AEA50E4DC016D917D918D919C917C
:1004C0000E94B714E3966CAF7DAF8EAF9FAFE397FA
:1004D000E3968CAD9DADAEADBFADE397F8018083E3
:1004E0009183A283B3838E01065B1F4FCE018E5B87
:1004F0009F4F20E030E040E850E4DC016D917D91B9
:100500008D919C910E94B714E7966CAF7DAF8EAF32
:100510009FAFE797E7968CAD9DADAEADBFADE797CA
:10052000F80180839183A283B383CE018A5B9F4FBE
:1005300020E030E040E85FE3DC016D917D918D913A
:100540009C910E94971388233CF4CE01825B9F4FBD
:1005500021E0FC0120838DC1CE01865B9F4F20E00E
:100560003FEF4FE757E4DC016D917D918D919C91B8
:100570000E94B21418160CF016C1CE018E5B9F4F6C
:1005800020E030E04AE754E4FC016081718182811F
:1005900093810E949C13EB966CAF7DAF8EAF9FAFA3
:1005A000EB97EB968CAD9DADAEADBFADEB979E01DD
:1005B000215B3F4FF90180839183A283B3838E0136
:1005C0000D5A1F4FCE01815B9F4F20E030E04AE77C
:1005D00055E4DC016D917D918D919C910E94B71441
:1005E000EF966CAF7DAF8EAF9FAFEF97EF968CAD70
:1005F0009DADAEADBFADEF97F80180839183A2832F
:10060000B383CE018D5A9F4F20E030E040E85FE396
:10061000DC016D917D918D919C910E9497138823AF
:100620004CF4CE01895A9F4F21E030E0FC01318328
:1006300020839EC0CE018D5A9F4F20E03FEF4FE7B1
:1006400057E4DC016D917D918D919C910E94B214D3
:1006500018160CF06FC0CE01815B9F4F20E030E098
:1006600040E251E4FC0160817181828193810E94AA
:10067000B714C158DF4F688379838A839B83CF5730
:10068000D040C158DF4F88819981AA81BB81CF5763
:10069000D040AF968CAF9DAFAEAFBFAFAF978E01DE
:1006A000095A1F4FAF966CAD7DAD8EAD9FADAF9724
:1006B0000E940E14CD57DF4F688379838A839B8312
:1006C000C358D040CD57DF4FE881F981C358D0409F
:1006D000D801ED93FC9325C0CE01875A9F4F20E9A6
:1006E00031E0DC012D933C93CE01875A9F4FFC01F2
:1006F000808191810197F1F79E01275A3F4FD901DF
:100700008D939C930000CE01895A9F4F9E01295AD8
:100710003F4FF9012081318121503109DC012D93B6
:100720003C93CE01895A9F4FFC0180819181892B96
:1007300099F69FC08E01095A1F4FCE018D5A9F4FC7
:10074000DC016D917D918D919C910E940E14C95791
:10075000DF4F688379838A839B83C758D040C9570A
:10076000DF4F88819981C758D040F80191838083F9
:10077000CE01855A9F4F9E01295A3F4FD9012D9195
:100780003C91FC0131832083CE01855A9F4FDC01CF
:100790008D919C910197F1F79E01255A3F4FF901E8
:1007A0009183808366C0CE018A5B9F4F20E030E05A
:1007B0004FE753E4DC016D917D918D919C910E94F6
:1007C000B2141816D4F58E01035A1F4FCE01865B62
:1007D0009F4FFC0160817181828193810E940E1480
:1007E000C557DF4F688379838A839B83CB58D0407A
:1007F000C557DF4FE881F981CB58D040D801ED9340
:10080000FC93CE01815A9F4F9E01235A3F4FD9013D
:100810002D913C91FC0131832083CE01815A9F4F61
:10082000DC018D919C910197F1F79E01215A3F4F78
:10083000F90191838083000034C08E01025B1F4F59
:10084000CE018A5B9F4FDC016D917D918D919C91D2
:100850000E940E14C157DF4F688379838A839B837C
:10086000CF58D040C157DF4F8881CF58D040F801D2
:100870008083CE018F599F4F9E01225B3F4FD9014C
:100880002C91FC012083CE018F599F4FDC018C916C
:10089000282F2A95F1F7CE018F599F4FFC01208315
:1008A000000083E290E0DC018C91282F2295207FCC
:1008B000CE01805C9F4FFC01208385E290E0DC014B
:1008C0002C9185E290E02F7EFC01208380E090E077
:1008D000A0E8BFE38B839C83AD83BE832BEA3AEA17
:1008E0004AEA50E46B817C818D819E810E94B7141D
:1008F000CD56DF4F688379838A839B83C359D04069
:10090000CD56DF4F88819981AA81BB81C359D040E0
:100910008F839887A987BA8720E030E040E850E4C9
:100920006B817C818D819E810E94B714C956DF4FF7
:10093000688379838A839B83C759D040C956DF4F28
:1009400088819981AA81BB81C759D0408B879C87B8
:10095000AD87BE8720E030E040E85FE36F817885B7
:1009600089859A850E94971388231CF481E08F87DC
:1009700018C120E03FEF4FE757E46B857C858D85FC
:100980009E850E94B21418160CF0C9C020E030E019
:100990004AE754E46B817C818D819E810E949C1387
:1009A000C556DF4F688379838A839B83CB59D040B8
:1009B000C556DF4F88819981AA81BB81CB59D04030
:1009C000888B998BAA8BBB8B20E030E04AE755E4FB
:1009D000688979898A899B890E94B714C156DF4F3B
:1009E000688379838A839B83CF59D040C156DF4F78
:1009F00088819981AA81BB81CF59D0408C8B9D8BF6
:100A0000AE8BBF8B20E030E040E85FE36C897D89EE
:100A10008E899F890E94971388232CF481E090E0AF
:100A2000998F888F71C020E03FEF4FE757E46C89C2
:100A30007D898E899F890E94B21418160CF04EC0D1
:100A400020E030E040E251E4688979898A899B8915
:100A50000E94B714CD55DF4F688379838A839B83C7
:100A6000C35AD040CD55DF4F88819981AA81BB817F
:100A7000C35AD040A7968CAF9DAFAEAFBFAFA7977C
:100A8000A7966CAD7DAD8EAD9FADA7970E940E145D
:100A9000C955DF4F688379838A839B83C75AD040C7
:100AA000C955DF4FA881B981C75AD040B98FA88FE7
:100AB00010C080E991E09B8F8A8F8A8D9B8D019772
:100AC000F1F79B8F8A8F0000888D998D0197998F00
:100AD000888F888D998D892B61F763C06C897D899A
:100AE0008E899F890E940E14C555DF4F68837983D4
:100AF0008A839B83CB5AD040C555DF4FE881F9816B
:100B0000CB5AD040F98FE88F888D998D9D8F8C8F2F
:100B10008C8D9D8D0197F1F79D8F8C8F42C020E0C9
:100B200030E04FE753E46F81788589859A850E948C
:100B3000B214181614F56B857C858D859E850E94F0
:100B40000E14C155DF4F688379838A839B83CF5A04
:100B5000D040C155DF4F88819981CF5AD0409F8FB7
:100B60008E8F8E8D9F8D99A388A388A199A10197BF
:100B7000F1F799A388A3000028C06F817885898543
:100B80009A850E940E14CD54DF4F688379838A833F
:100B90009B83C35BD040CD54DF4F9881C35BD04073
:100BA0009F87CE018F5B9F4F2F85DC012C93CE0159
:100BB0008F5B9F4FFC018081282F2A95F1F7CE0192
:100BC0008F5B9F4FDC012C93000085E290E0FC01DD
:100BD000208185E290E02061DC012C9380E090E0B0
:100BE000A0E8BFE38CA79DA7AEA7BFA72BEA3AEA70
:100BF0004AEA50E46CA57DA58EA59FA50E94B71476
:100C0000C954DF4F688379838A839B83C75BD04055
:100C1000C954DF4F88819981AA81BB81C75BD040CD
:100C200088AB99ABAAABBBAB20E030E040E850E426
:100C30006CA57DA58EA59FA50E94B714C554DF4F56
:100C4000688379838A839B83CB5BD040C554DF4F15
:100C500088819981AA81BB81CB5BD0408CAB9DAB55
:100C6000AEABBFAB20E030E040E85FE368A979A914
:100C70008AA99BA90E94971388231CF481E0898389
:100C800018C120E03FEF4FE757E46CA97DA98EA97A
:100C90009FA90E94B21418160CF0C9C020E030E0E1
:100CA0004AE754E46CA57DA58EA59FA50E949C13E0
:100CB000C154DF4F688379838A839B83CF5BD040A5
:100CC000C154DF4F88819981AA81BB81CF5BD0401D
:100CD00088AF99AFAAAFBBAF20E030E04AE755E458
:100CE00068AD79AD8AAD9BAD0E94B714CD53DF4F8F
:100CF000688379838A839B83C35CD040CD53DF4F65
:100D000088819981AA81BB81C35CD0408CAF9DAFA3
:100D1000AEAFBFAF20E030E040E85FE36CAD7DAD4B
:100D20008EAD9FAD0E94971388232CF481E090E054
:100D30009FA38EA371C020E03FEF4FE757E46CAD57
:100D40007DAD8EAD9FAD0E94B21418160CF04EC052
:100D500020E030E040E251E468AD79AD8AAD9BAD72
:100D60000E94B714C953DF4F688379838A839B83BA
:100D7000C75CD040C953DF4F88819981AA81BB816C
:100D8000C75CD040AB968CAF9DAFAEAFBFAFAB975B
:100D9000AB966CAD7DAD8EAD9FADAB970E940E1442
:100DA000C553DF4F688379838A839B83CB5CD040B4
:100DB000C553DF4FA881B981CB5CD040BFA3AEA3A0
:100DC00010C080E991E09BA78AA78AA59BA50197FF
:100DD000F1F79BA78AA700008EA19FA101979FA36F
:100DE0008EA38EA19FA1892B61F763C06CAD7DADF1
:100DF0008EAD9FAD0E940E14C153DF4F688379837F
:100E00008A839B83CF5CD040C153DF4FE881F98157
:100E1000CF5CD040FFA3EEA38EA19FA199A788A786
:100E200088A599A50197F1F799A788A742C020E066
:100E300030E04FE753E468A979A98AA99BA90E94E9
:100E4000B214181614F56CA97DA98EA99FA90E9449
:100E50000E14CD52DF4F688379838A839B83C35DF1
:100E6000D040CD52DF4F88819981C35DD0409BA394
:100E70008AA38AA19BA19DA38CA38CA19DA101976C
:100E8000F1F79DA38CA300001BC068A979A98AA9CA
:100E90009BA90E940E14C952DF4F688379838A830D
:100EA0009B83C75DD040C952DF4F9881C75DD0405A
:100EB000998389818A838A818A95F1F78A830000E0
:100EC00083E290E0DC018C91882F90E08F7099276D
:100ED000282FCE01805C9F4FFC018081282BCE0102
:100EE000805C9F4FDC012C9385E290E0FC01208127
:100EF00085E290E02F7EDC012C93CE01805C9F4F39
:100F0000FC018081C652DF4F0FB6F894DEBF0FBEE2
:100F1000CDBFDF91CF911F910F9108951F93CF9374
:100F2000DF93CDB7DEB7C854D1090FB6F894DEBF52
:100F30000FBECDBF000080E00E94FE01182F812F60
:100F40008823CCF380E090E0A0E8B0E489839A8322
:100F5000AB83BC832BEA3AEA4AEA50E469817A819E
:100F60008B819C810E94B7146DA37EA38FA398A749
:100F70008DA19EA1AFA1B8A58D839E83AF83B887B5
:100F800020E030E040E850E469817A818B819C81E7
:100F90000E94B71469A77AA78BA79CA789A59AA5D1
:100FA000ABA5BCA589879A87AB87BC8720E030E0DA
:100FB00040E85FE36D817E818F8198850E94971361
:100FC00088231CF481E08D87E5C020E03FEF4FE7E8
:100FD00057E469857A858B859C850E94B214181622
:100FE0000CF09EC020E030E04AE754E469817A8149
:100FF0008B819C810E949C136DA77EA78FA798ABC5
:101000008DA59EA5AFA5B8A98E879F87A88BB98B04
:1010100020E030E04AE755E46E857F85888999892C
:101020000E94B71469AB7AAB8BAB9CAB89A99AA928
:10103000ABA9BCA98A8B9B8BAC8BBD8B20E030E02D
:1010400040E85FE36A897B898C899D890E949713B8
:1010500088232CF481E090E09F8B8E8B56C020E09B
:101060003FEF4FE757E46A897B898C899D890E940D
:10107000B2141816D4F520E030E040E251E46E8559
:101080007F85888999890E94B7146DAB7EAB8FAB41
:1010900098AF8DA99EA9AFA9B8AD89A39AA3ABA318
:1010A000BCA369A17AA18BA19CA10E940E1469AF77
:1010B0007AAF8BAF9CAFA9ADBAADBF8BAE8B10C072
:1010C00080E991E0998F888F888D998D0197F1F74C
:1010D000998F888F00008E899F8901979F8B8E8BB7
:1010E0008E899F89892B61F755C06A897B898C8994
:1010F0009D890E940E1421966CAF7DAF8EAF9FAF7D
:1011000021978DAD9EAD9F8B8E8B8E899F899B8FF6
:101110008A8F8A8D9B8D0197F1F79B8F8A8F3AC0BA
:1011200020E030E04FE753E46D817E818F81988528
:101130000E94B2141816F4F469857A858B859C8513
:101140000E940E1425966CAF7DAF8EAF9FAF259792
:101150002396AEADBFAD2397BD8FAC8F8C8D9D8D8B
:101160009F8F8E8F8E8D9F8D0197F1F79F8F8E8F22
:10117000000017C06D817E818F8198850E940E14BA
:1011800029966CAF7DAF8EAF9FAF29972696BFADE6
:101190002697BD878D8588A388A18A95F1F788A3B6
:1011A000000080E00E94FE01C85BDF4F0FB6F8949C
:1011B000DEBF0FBECDBFDF91CF911F9108951F936A
:1011C000CF93DF930F92CDB7DEB7898389818034C7
:1011D00010F410E401C010E080E8810F0E94F608CE
:1011E00000000F90DF91CF911F910895CF93DF936F
:1011F0000F92CDB7DEB789830E948E0760E08981A8
:101200000E94A20100000F90DF91CF910895CF932B
:10121000DF930F92CDB7DEB789830E948E0761E01E
:1012200089810E94A20100000F90DF91CF91089563
:10123000CF93DF9300D0CDB7DEB789836A838A81ED
:10124000882329F4898180580E94F60804C0898186
:1012500080540E94F60800000F900F90DF91CF910C
:101260000895CF93DF93CDB7DEB70E948E07882F06
:1012700090E0DF91CF910895CF93DF93CDB7DEB7A4
:1012800081E00E94F6080000DF91CF910895CF938E
:10129000DF93CDB7DEB782E00E94F6080000DF9151
:1012A000CF910895CF93DF9300D0CDB7DEB78A8377
:1012B0000E948E0789838A818A3021F489810E9465
:1012C000DF0804C08A8161E00E94A20100000F9043
:1012D0000F90DF91CF9108951F93CF93DF9300D0AC
:1012E000CDB7DEB79A83898303C0812F0E9452094C
:1012F00089819A819C012F5F3F4F3A832983FC01AA
:101300001081112391F7000000000F900F90DF91E2
:10131000CF911F9108951F93CF93DF9300D000D0FA
:101320000F92CDB7DEB79D838C8303C0812F0E94BF
:1013300052098C819D819C012F5F3F4F3D832C83FF
:101340009A83898389819A81FC0184918B838B8123
:10135000182F112359F7000000000F900F900F90E5
:101360000F900F90DF91CF911F9108950F931F93CE
:10137000CF93DF93CDB7DEB7C956D1400FB6F894FF
:10138000DEBF0FBECDBF9E012F553F4FD9018C93BD
:1013900084E290E0FC01208184E290E02F60DC0197
:1013A0002C938AE290E0FC0120818AE290E02460A4
:1013B000DC012C938AE290E0FC0120818AE290E03B
:1013C0002860DC012C9384E290E0FC01208184E21F
:1013D00090E02061DC012C939E012F573F4F80E06D
:1013E00090E0AAE7B6E4F90180839183A283B383F6
:1013F0008E010B571F4FCE018F579F4F2BEA3AEAB2
:101400004AEA50E4DC016D917D918D919C910E949E
:10141000B714CA54DF4F688379838A839B83C65B82
:10142000D040CA54DF4F88819981AA81BB81C65BB5
:10143000D040F80180839183A283B3838E01075744
:101440001F4FCE018F579F4F20E030E040E850E41F
:10145000DC016D917D918D919C910E94B714C654D1
:10146000DF4F688379838A839B83CA5BD040C654ED
:10147000DF4F88819981AA81BB81CA5BD040F80186
:1014800080839183A283B383CE018B579F4F20E04B
:1014900030E040E85FE3DC016D917D918D919C919E
:1014A0000E94971388233CF4CE0183579F4F21E07D
:1014B000FC01208399C1CE0187579F4F20E03FEF69
:1014C0004FE757E4DC016D917D918D919C910E94D5
:1014D000B21418160CF022C1CE018F579F4F20E096
:1014E00030E04AE754E4FC0160817181828193819C
:1014F0000E949C13C254DF4F688379838A839B8345
:10150000CE5BD040C254DF4F88819981AA81BB81D4
:10151000CE5BD0409E0122573F4FF90180839183DB
:10152000A283B3838E010E561F4FCE0182579F4F69
:1015300020E030E04AE755E4DC016D917D918D912A
:101540009C910E94B714CE53DF4F688379838A83BE
:101550009B83C25CD040CE53DF4F88819981AA81A2
:10156000BB81C25CD040F80180839183A283B383A6
:10157000CE018E569F4F20E030E040E85FE3DC0173
:101580006D917D918D919C910E94971388234CF4CD
:10159000CE018A569F4F21E030E0FC013183208349
:1015A000A2C0CE018E569F4F20E03FEF4FE757E499
:1015B000DC016D917D918D919C910E94B214181661
:1015C0000CF073C0CE0182579F4F20E030E040E224
:1015D00051E4FC0160817181828193810E94B71482
:1015E000CA53DF4F688379838A839B83C65CD0406C
:1015F000CA53DF4F88819981AA81BB81C65CD040E4
:10160000CE54DF4F88839983AA83BB83C25BD040CB
:101610008E010A561F4FCE54DF4F688179818A812F
:101620009B81C25BD0400E940E14C653DF4F68837B
:1016300079838A839B83CA5CD040C653DF4FE8819D
:10164000F981CA5CD040D801ED93FC9325C0CE014E
:1016500088569F4F20E931E0DC012D933C93CE0169
:1016600088569F4FFC01808191810197F1F79E017F
:1016700028563F4FD9018D939C930000CE018A5686
:101680009F4F9E012A563F4FF90120813181215001
:101690003109DC012D933C93CE018A569F4FFC010A
:1016A00080819181892B99F69FC08E010A561F4F28
:1016B000CE018E569F4FDC016D917D918D919C9155
:1016C0000E940E14C253DF4F688379838A839B8301
:1016D000CE5CD040C253DF4F88819981CE5CD04030
:1016E000F80191838083CE0186569F4F9E012A5632
:1016F0003F4FD9012D913C91FC0131832083CE01D4
:1017000086569F4FDC018D919C910197F1F79E01C8
:1017100026563F4FF9019183808366C0CE018B57D7
:101720009F4F20E030E04FE753E4DC016D917D9165
:101730008D919C910E94B2141816D4F58E01045616
:101740001F4FCE0187579F4FFC01608171818281BD
:1017500093810E940E14CE52DF4F688379838A836F
:101760009B83C25DD040CE52DF4FE881F981C25DDC
:10177000D040D801ED93FC93CE0182569F4F9E013D
:1017800024563F4FD9012D913C91FC013183208398
:10179000CE0182569F4FDC018D919C910197F1F70C
:1017A0009E0122563F4FF90191838083000034C08F
:1017B0008E0103571F4FCE018B579F4FDC016D9158
:1017C0007D918D919C910E940E14CA52DF4F6883C7
:1017D00079838A839B83C65DD040CA52DF4F88815C
:1017E000C65DD040F8018083CE0180569F4F9E0198
:1017F00023573F4FD9012C91FC012083CE01805605
:101800009F4FDC018C91282F2A95F1F7CE0180564D
:101810009F4FFC012083000085E290E0DC012C91C9
:1018200085E290E02260FC01208385E290E0DC010B
:101830002C9185E290E02160FC0120830E944B0006
:101840009E012F593F4F80E090E4ACE9B5E4F901E7
:1018500080839183A283B3838E010B591F4FCE01E6
:101860008F599F4F2BEA3AEA4AEA50E4DC016D9126
:101870007D918D919C910E94B714C652DF4F688371
:1018800079838A839B83CA5DD040C652DF4F8881AB
:101890009981AA81BB81CA5DD040F8018083918380
:1018A000A283B3838E0107591F4FCE018F599F4FDB
:1018B00020E030E040E850E4DC016D917D918D91B5
:1018C0009C910E94B714C252DF4F688379838A8348
:1018D0009B83CE5DD040C252DF4F88819981AA811F
:1018E000BB81CE5DD040F80180839183A283B38316
:1018F000CE018B599F4F20E030E040E85FE3DC01F0
:101900006D917D918D919C910E94971388233CF459
:10191000CE0183599F4F21E0FC01208399C1CE0164
:1019200087599F4F20E03FEF4FE757E4DC016D916F
:101930007D918D919C910E94B21418160CF022C1D9
:10194000CE018F599F4F20E030E04AE754E4FC017C
:1019500060817181828193810E949C13CE51DF4FFF
:10196000688379838A839B83C25ED040CE51DF4FE8
:1019700088819981AA81BB81C25ED0409E01225993
:101980003F4FF90180839183A283B3838E010E5868
:101990001F4FCE0182599F4F20E030E04AE755E4C7
:1019A000DC016D917D918D919C910E94B714CA517B
:1019B000DF4F688379838A839B83C65ED040CA5198
:1019C000DF4F88819981AA81BB81C65ED040F80132
:1019D00080839183A283B383CE018E589F4F20E0F2
:1019E00030E040E85FE3DC016D917D918D919C9149
:1019F0000E94971388234CF4CE018A589F4F21E010
:101A000030E0FC0131832083A2C0CE018E589F4F6D
:101A100020E03FEF4FE757E4DC016D917D918D9120
:101A20009C910E94B21418160CF073C0CE0182591A
:101A30009F4F20E030E040E251E4FC016081718181
:101A4000828193810E94B714C651DF4F68837983E6
:101A50008A839B83CA5ED040C651DF4F88819981BB
:101A6000AA81BB81CA5ED040C255DF4F888399836B
:101A7000AA83BB83CE5AD0408E010A581F4FC2554D
:101A8000DF4F688179818A819B81CE5AD0400E9444
:101A90000E14C251DF4F688379838A839B83CE5EA5
:101AA000D040C251DF4FE881F981CE5ED040D801ED
:101AB000ED93FC9325C0CE0188589F4F20E931E07B
:101AC000DC012D933C93CE0188589F4FFC0180810F
:101AD00091810197F1F79E0128583F4FD9018D93CD
:101AE0009C930000CE018A589F4F9E012A583F4F79
:101AF000F9012081318121503109DC012D933C9382
:101B0000CE018A589F4FFC0180819181892B99F6E3
:101B10009FC08E010A581F4FCE018E589F4FDC0187
:101B20006D917D918D919C910E940E14CE50DF4F4E
:101B3000688379838A839B83C25FD040CE50DF4F16
:101B400088819981C25FD040F80191838083CE0162
:101B500086589F4F9E012A583F4FD9012D913C91A5
:101B6000FC0131832083CE0186589F4FDC018D918B
:101B70009C910197F1F79E0126583F4FF9019183FF
:101B8000808366C0CE018B599F4F20E030E04FE745
:101B900053E4DC016D917D918D919C910E94B21472
:101BA0001816D4F58E0104581F4FCE0187599F4F48
:101BB000FC0160817181828193810E940E14CA5060
:101BC000DF4F688379838A839B83C65FD040CA5086
:101BD000DF4FE881F981C65FD040D801ED93FC93D7
:101BE000CE0182589F4F9E0124583F4FD9012D911D
:101BF0003C91FC0131832083CE0182589F4FDC0150
:101C00008D919C910197F1F79E0122583F4FF90168
:101C100091838083000034C08E0103591F4FCE0191
:101C20008B599F4FDC016D917D918D919C910E940C
:101C30000E14C650DF4F688379838A839B83CA5F03
:101C4000D040C650DF4F8881CA5FD040F801808302
:101C5000CE0180589F4F9E0123593F4FD9012C91AF
:101C6000FC012083CE0180589F4FDC018C91282FEE
:101C70002A95F1F7CE0180589F4FFC012083000088
:101C80000E944B009E012F5B3F4F80E090E0A0E858
:101C9000B2E4F90180839183A283B3838E010B5B4D
:101CA0001F4FCE018F5B9F4F2BEA3AEA4AEA50E47E
:101CB000DC016D917D918D919C910E94B714C25071
:101CC000DF4F688379838A839B83CE5FD040C25085
:101CD000DF4F88819981AA81BB81CE5FD040F80116
:101CE00080839183A283B3838E01075B1F4FCE0154
:101CF0008F5B9F4F20E030E040E850E4DC016D91C5
:101D00007D918D919C910E94B714CE5FDE4F6883C8
:101D100079838A839B83C250D140CE5FDE4F888116
:101D20009981AA81BB81C250D140F80180839183FF
:101D3000A283B383CE018B5B9F4F20E030E040E86D
:101D40005FE3DC016D917D918D919C910E949713D1
:101D500088233CF4CE01835B9F4F21E0FC0120836C
:101D600099C1CE01875B9F4F20E03FEF4FE757E4DB
:101D7000DC016D917D918D919C910E94B214181699
:101D80000CF022C1CE018F5B9F4F20E030E04AE78C
:101D900054E4FC0160817181828193810E949C13D3
:101DA000CA5FDE4F688379838A839B83C650D140A4
:101DB000CA5FDE4F88819981AA81BB81C650D1401C
:101DC0009E01225B3F4FF90180839183A283B383FD
:101DD0008E010E5A1F4FCE01825B9F4F20E030E0F4
:101DE0004AE755E4DC016D917D918D919C910E94B3
:101DF000B714C65FDE4F688379838A839B83CA509A
:101E0000D140C65FDE4F88819981AA81BB81CA50CB
:101E1000D140F80180839183A283B383CE018E5A8F
:101E20009F4F20E030E040E85FE3DC016D917D9161
:101E30008D919C910E94971388234CF4CE018A5A6D
:101E40009F4F21E030E0FC0131832083A2C0CE010E
:101E50008E5A9F4F20E03FEF4FE757E4DC016D9132
:101E60007D918D919C910E94B21418160CF073C054
:101E7000CE01825B9F4F20E030E040E251E4FC0164
:101E800060817181828193810E94B714C25FDE4FAD
:101E9000688379838A839B83CE50D140C25FDE4FB3
:101EA00088819981AA81BB81CE50D140C655DF4F30
:101EB00088839983AA83BB83CA5AD0408E010A5A69
:101EC0001F4FC655DF4F688179818A819B81CA5A2D
:101ED000D0400E940E14CE5EDE4F688379838A83E1
:101EE0009B83C251D140CE5EDE4FE881F981C25161
:101EF000D140D801ED93FC9325C0CE01885A9F4F65
:101F000020E931E0DC012D933C93CE01885A9F4FAC
:101F1000FC01808191810197F1F79E01285A3F4F82
:101F2000D9018D939C930000CE018A5A9F4F9E0148
:101F30002A5A3F4FF9012081318121503109DC01BA
:101F40002D933C93CE018A5A9F4FFC018081918151
:101F5000892B99F69FC08E010A5A1F4FCE018E5AC7
:101F60009F4FDC016D917D918D919C910E940E148B
:101F7000CA5EDE4F688379838A839B83C651D140D2
:101F8000CA5EDE4F88819981C651D140F8019183A4
:101F90008083CE01865A9F4F9E012A5A3F4FD90116
:101FA0002D913C91FC0131832083CE01865A9F4FB5
:101FB000DC018D919C910197F1F79E01265A3F4FCC
:101FC000F9019183808366C0CE018B5B9F4F20E037
:101FD00030E04FE753E4DC016D917D918D919C9150
:101FE0000E94B2141816D4F58E01045A1F4FCE0168
:101FF000875B9F4FFC0160817181828193810E9488
:102000000E14C65EDE4F688379838A839B83CA5130
:10201000D140C65EDE4FE881F981CA51D140D80176
:10202000ED93FC93CE01825A9F4F9E01245A3F4F5D
:10203000D9012D913C91FC0131832083CE01825A3C
:102040009F4FDC018D919C910197F1F79E01225ADF
:102050003F4FF90191838083000034C08E01035B00
:102060001F4FCE018B5B9F4FDC016D917D918D9158
:102070009C910E940E14C25EDE4F688379838A832E
:102080009B83CE51D140C25EDE4F8881CE51D1407C
:10209000F8018083CE01805A9F4F9E01235B3F4F02
:1020A000D9012C91FC012083CE01805A9F4FDC0185
:1020B0008C91282F2A95F1F7CE01805A9F4FFC0171
:1020C000208300000E944B0080E090E0A0E8B2E492
:1020D00089A39AA3ABA3BCA32BEA3AEA4AEA50E449
:1020E00069A17AA18BA19CA10E94B714CE5DDE4F9D
:1020F000688379838A839B83C252D140CE5DDE4F51
:1021000088819981AA81BB81C252D1408DA39EA3AF
:10211000AFA3B8A720E030E040E850E469A17AA17D
:102120008BA19CA10E94B714CA5DDE4F688379839E
:102130008A839B83C652D140CA5DDE4F88819981D4
:10214000AA81BB81C652D14089A79AA7ABA7BCA7D9
:1021500020E030E040E85FE36DA17EA18FA198A56B
:102160000E94971388231CF481E08DA71CC120E0F6
:102170003FEF4FE757E469A57AA58BA59CA50E9480
:10218000B21418160CF0CDC020E030E04AE754E459
:1021900069A17AA18BA19CA10E949C13C65DDE4F10
:1021A000688379838A839B83CA52D140C65DDE4FA0
:1021B00088819981AA81BB81CA52D1408EA79FA7ED
:1021C000A8ABB9AB20E030E04AE755E46EA57FA5A7
:1021D00088A999A90E94B714C25DDE4F68837983EC
:1021E0008A839B83CE52D140C25DDE4F8881998124
:1021F000AA81BB81CE52D1408AAB9BABACABBDAB0D
:1022000020E030E040E85FE36AA97BA98CA99DA9A2
:102210000E94971388232CF481E090E09FAB8EAB53
:1022200075C020E03FEF4FE757E46AA97BA98CA96E
:102230009DA90E94B21418160CF052C020E030E0A4
:1022400040E251E46EA57FA588A999A90E94B71420
:10225000CE5CDE4F688379838A839B83C253D140EF
:10226000CE5CDE4F88819981AA81BB81C253D14067
:10227000CA55DF4F88839983AA83BB83C65AD0404F
:10228000CA55DF4F688179818A819B81C65AD040C7
:102290000E940E14CA5CDE4F688379838A839B8315
:1022A000C653D140CA5CDE4FA881B981C653D14024
:1022B000BFABAEAB10C080E991E099AF88AF88ADFD
:1022C00099AD0197F1F799AF88AF00008EA99FA94A
:1022D00001979FAB8EAB8EA99FA9892B61F763C035
:1022E0006AA97BA98CA99DA90E940E14C65CDE4F29
:1022F000688379838A839B83CA53D140C65CDE4F4F
:10230000E881F981CA53D140FFABEEAB8EA99FA9FA
:102310009BAF8AAF8AAD9BAD0197F1F79BAF8AAFB8
:1023200042C020E030E04FE753E46DA17EA18FA1D1
:1023300098A50E94B214181614F569A57AA58BA564
:102340009CA50E940E14C25CDE4F688379838A8349
:102350009B83CE53D140C25CDE4F88819981CE539E
:10236000D1409DAF8CAF8CAD9DAD9FAF8EAF8EAD8C
:102370009FAD0197F1F79FAF8EAF000028C06DA110
:102380007EA18FA198A50E940E14CE5BDE4F6883BC
:1023900079838A839B83C254D140CE5BDE4F988180
:1023A000C254D1409DA72DA5CE01805C9F4FDC017A
:1023B0002C93CE01805C9F4FFC018081282F2A95B1
:1023C000F1F7CE01805C9F4FDC012C93000085E289
:1023D00090E0FC01208185E290E02E7FDC012C93CF
:1023E0000E944B0080E090E0A0E8B2E48B879C87DD
:1023F000AD87BE872BEA3AEA4AEA50E46B857C85D2
:102400008D859E850E94B714CA5BDE4F68837983F1
:102410008A839B83C654D140CA5BDE4F88819981F1
:10242000AA81BB81C654D1408F87988BA98BBA8B68
:1024300020E030E040E850E46B857C858D859E850A
:102440000E94B714C65BDE4F688379838A839B83BF
:10245000CA54D140C65BDE4F88819981AA81BB8175
:10246000CA54D1408B8B9C8BAD8BBE8B20E030E06F
:1024700040E85FE36F85788989899A890E9497137C
:1024800088231CF481E08F8B1CC120E03FEF4FE7D5
:1024900057E46B897C898D899E890E94B214181635
:1024A0000CF0CDC020E030E04AE754E46B857C8539
:1024B0008D859E850E949C13C25BDE4F6883798365
:1024C0008A839B83CE54D140C25BDE4F8881998141
:1024D000AA81BB81CE54D14089839A83AB83BC83CC
:1024E00020E030E04AE755E469817A818B819C8164
:1024F0000E94B714CE5ADE4F688379838A839B8308
:10250000C255D140CE5ADE4F88819981AA81BB81C4
:10251000C255D1408D839E83AF83B88720E030E0E1
:1025200040E85FE36D817E818F8198850E949713DB
:1025300088232CF481E090E09A87898775C020E099
:102540003FEF4FE757E46D817E818F8198850E9430
:10255000B21418160CF052C020E030E040E251E412
:1025600069817A818B819C810E94B714CA5ADE4F9F
:10257000688379838A839B83C655D140CA5ADE4FCC
:1025800088819981AA81BB81C655D140CE55DF4F44
:1025900088839983AA83BB83C25AD040CE55DF4F2C
:1025A000688179818A819B81C25AD0400E940E1431
:1025B000C65ADE4F688379838A839B83CA55D1408C
:1025C000C65ADE4FA881B981CA55D140BA87A987BA
:1025D00010C080E991E0998F888F888D998D01973F
:1025E000F1F7998F888F000089859A8501979A87DE
:1025F000898789859A85892B61F763C06D817E8182
:102600008F8198850E940E14C25ADE4F68837983A9
:102610008A839B83CE55D140C25ADE4FE881F9812F
:10262000CE55D140FA87E98789859A859B8F8A8F15
:102630008A8D9B8D0197F1F79B8F8A8F42C020E096
:1026400030E04FE753E46F85788989899A890E9441
:10265000B214181614F56B897C898D899E890E94A5
:102660000E14CE59DE4F688379838A839B83C256CA
:10267000D140CE59DE4F88819981C256D1409D8F7D
:102680008C8F8C8D9D8D9F8F8E8F8E8D9F8D0197C2
:10269000F1F79F8F8E8F00001BC06F857889898925
:1026A0009A890E940E14CA59DE4F688379838A83FF
:1026B0009B83C656D140CA59DE4F9881C656D14039
:1026C0009F8B8F8988A388A18A95F1F788A3000042
:1026D00088E20E94F60888E00E94F6080E943C0901
:1026E00086E00E94F608CE018F559F4FDC018C9149
:1026F0000E94F6080000C759DE4F0FB6F894DEBFFF
:102700000FBECDBFDF91CF911F910F910895CF9351
:10271000DF93CDB7DEB78CE00E94B6090E943C097A
:102720000E943C0980E091E00E946C09F9CF0E9470
:102730003D1408F481E008950E94B0130C947814BD
:102740000E94711458F00E946A1440F029F45F3F0F
:1027500029F00C94611451110C94AC140C9467146E
:102760000E94891468F39923B1F3552391F3951BC3
:10277000550BBB27AA2762177307840738F09F5FA2
:102780005F4F220F331F441FAA1FA9F335D00E2E0F
:102790003AF0E0E832D091505040E695001CCAF77C
:1027A0002BD0FE2F29D0660F771F881FBB1F26173F
:1027B00037074807AB07B0E809F0BB0B802DBF0116
:1027C000FF2793585F4F3AF09E3F510578F00C94E5
:1027D00061140C94AC145F3FE4F3983ED4F38695F7
:1027E00077956795B795F7959F5FC9F7880F911D06
:1027F0009695879597F90895E1E0660F771F881FF2
:10280000BB1F621773078407BA0720F0621B730BA4
:10281000840BBA0BEE1F88F7E09508950E9491147F
:1028200088F09F5798F0B92F9927B751B0F0E1F091
:10283000660F771F881F991F1AF0BA95C9F714C041
:10284000B13091F00E94AB14B1E008950C94AB1438
:10285000672F782F8827B85F39F0B93FCCF386957A
:1028600077956795B395D9F73EF4909580957095D7
:1028700061957F4F8F4F9F4F0895990F0008550F17
:10288000AA0BE0E8FEEF16161706E807F907C0F0F6
:1028900012161306E407F50798F0621B730B840BFE
:1028A000950B39F40A2661F0232B242B252B21F4D8
:1028B00008950A2609F4A140A6958FEF811D811D78
:1028C000089597F99F6780E870E060E008959FEFB2
:1028D00080EC089500240A941616170618060906B7
:1028E000089500240A941216130614060506089586
:1028F000092E0394000C11F4882352F0BB0F40F40E
:10290000BF2B11F460FF04C06F5F7F4F8F4F9F4F4D
:10291000089557FD9058440F551F59F05F3F71F0CF
:102920004795880F97FB991F61F09F3F79F0879536
:102930000895121613061406551FF2CF4695F1DFBF
:1029400008C0161617061806991FF1CF869571054F
:10295000610508940895E894BB2766277727CB0183
:1029600097F908950E943D1408F48FEF08950E948E
:10297000CA140C9478140E946A1438F00E947114DE
:1029800020F0952311F00C9461140C946714112419
:102990000C94AC140E94891470F3959FC1F3950FA9
:1029A00050E0551F629FF001729FBB27F00DB11DD3
:1029B000639FAA27F00DB11DAA1F649F6627B00D63
:1029C000A11D661F829F2227B00DA11D621F739F4C
:1029D000B00DA11D621F839FA00D611D221F749F5A
:1029E0003327A00D611D231F849F600D211D822FA1
:1029F000762F6A2F11249F5750409AF0F1F08823C8
:102A00004AF0EE0FFF1FBB1F661F771F881F9150F4
:102A10005040A9F79E3F510580F00C9461140C942E
:102A2000AC145F3FE4F3983ED4F3869577956795B1
:102A3000B795F795E7959F5FC1F7FE2B880F911D1E
:0C2A40009695879597F90895F894FFCFBC
:022A4C00310057
:00000001FF
