:100000000C9434000C9446000C9446000C9446006A
:100010000C9446000C9446000C9446000C94460048
:100020000C9446000C9446000C9446000C94460038
:100030000C9446000C9446000C94BD010C944600B0
:100040000C9446000C9446000C9446000C94460018
:100050000C9446000C9446000C9446000C94460008
:100060000C9446000C94460011241FBECFEFD8E03C
:10007000DEBFCDBF11E0A0E0B1E001C01D92A13014
:10008000B107E1F70E94F0010C9461020C940000AA
:100090000F931F93DF93CF9300D000D0CDB7DEB77F
:1000A00069837A838B839C8304EC10E089819A8135
:1000B000AB81BC81880F991FAA1FBB1F880F991F96
:1000C000AA1FBB1F880F991FAA1FBB1F880F991F4C
:1000D000AA1FBB1F9C01AD0180E094E2A4EFB0E039
:1000E000BC01CD010E943F02DA01C9018150F80133
:1000F0008083E5ECF0E01082A1ECB0E0E1ECF0E010
:10010000808188698C93E2ECF0E086E080830F9038
:100110000F900F900F90CF91DF911F910F91089545
:10012000DF93CF930F92CDB7DEB78983E0ECF0E099
:100130008081882F90E0807290700097B9F3E6EC90
:10014000F0E0898180830F90CF91DF910895DF9354
:10015000CF9300D00F92CDB7DEB79B838A831982ED
:100160000FC08981282F30E08A819B81FC01E20F3A
:10017000F31F908189818F5F8983892F0E9490006E
:100180008981282F30E08A819B81FC01E20FF31FD7
:100190008081882331F780E20E9490000F900F90B9
:1001A0000F90CF91DF910895DF93CF93CDB7DEB756
:1001B000E0ECF0E080818823DCF7E6ECF0E0808181
:1001C000CF91DF910895DF93CF9300D00F92CDB7F9
:1001D000DEB79A8389830E94D400E981FA81808303
:1001E000E981FA8180811B828A3011F081E08B8362
:1001F00089819A8101969A8389838B81882359F713
:1002000089819A8101979A838983E981FA81108291
:100210000F900F900F90CF91DF910895DF93CF93C0
:10022000CDB7DEB78DE00E9490008AE00E9490007A
:10023000CF91DF910895DF93CF9300D000D0CDB759
:10024000DEB79A8389837C836B8389819A8120E1DD
:1002500037E2B9010E942B0228EE33E0B9010E9477
:100260002B02CB01805DEB81FC8180838B819C81A3
:10027000FC01319689819A8128EE33E0B9010E9410
:100280002B0224E630E0B9010E942B02CB01805DF5
:1002900080838B819C81FC01329689819A8124E63E
:1002A00030E0B9010E942B022AE030E0B9010E943F
:1002B0002B02CB01805D80838B819C81FC01339676
:1002C00089819A812AE030E0B9010E942B02805D89
:1002D00080838B819C81FC01349610820F900F905B
:1002E0000F900F90CF91DF910895DF93CF93CDB70B
:1002F000DEB728970FB6F894DEBF0FBECDBF9C8344
:100300008B837E836D831A82198214C029813A817E
:100310008B819C81FC01E20FF31F408129813A818E
:100320008D819E81FC01E20FF31F8081481711F03F
:100330001F8219C029813A818B819C81FC01E20FC7
:10034000F31F808188878885882311F081E0888762
:10035000888529813A812F5F3F4F3A8329838823FB
:10036000A9F681E08F838F8128960FB6F894DEBFBF
:100370000FBECDBFCF91DF9108951F920F920FB6A0
:100380000F9211248F93AF93BF93EF93FF93DF935B
:10039000CF930F92CDB7DEB7EFE5F0E08081898390
:1003A000AFE5B0E0EFE5F0E080818F778C93E6E495
:1003B000F0E01082809100018F5F80930001EFE5F3
:1003C000F0E0898180830F90CF91DF91FF91EF91D1
:1003D000BF91AF918F910F900FBE0F901F90189506
:1003E000DF93CF93CDB7DEB7AFE5B0E0EFE5F0E058
:1003F000808180688C93E7E4F0E087E48083AEE658
:10040000B0E0EEE6F0E0808182608C93A5E4B0E09D
:10041000E5E4F0E0808185608C93EAE2F0E084E03E
:10042000808360E875E280E090E00E94480080915F
:1004300000018B30E0F310920001ABE2B0E0EBE2A0
:10044000F0E0908184E089278C9381E30E94900002
:100450000E940E01ECCFAA1BBB1B51E107C0AA1FD3
:10046000BB1FA617B70710F0A61BB70B881F991F55
:100470005A95A9F780959095BC01CD010895A1E208
:100480001A2EAA1BBB1BFD010DC0AA1FBB1FEE1F0E
:10049000FF1FA217B307E407F50720F0A21BB30B59
:1004A000E40BF50B661F771F881F991F1A9469F7D5
:1004B00060957095809590959B01AC01BD01CF0131
:0604C0000895F894FFCF3F
:00000001FF
