:100000000C9434000C943E000C943E000C943E0082
:100010000C943E000C943E000C943E000C943E0068
:100020000C943E000C943E000C943E000C943E0058
:100030000C943E000C943E000C943E000C943E0048
:100040000C943E000C943E000C943E000C943E0038
:100050000C943E000C943E000C943E000C943E0028
:100060000C943E000C943E0011241FBECFEFD8E04C
:10007000DEBFCDBF0E948D000C94DC000C9400000C
:10008000CF93DF93CDB7DEB760970FB6F894DEBF9E
:100090000FBECDBF69877A878B879C8749855A8534
:1000A0006B857C858EE791E0DC019A01AB010E94B3
:1000B000C2006D877E878F87988B8D859E85AF85E3
:1000C000B8898D839E83AF83B88719821A821B8279
:1000D0001C820BC089819A81AB81BC810196A11DD4
:1000E000B11D89839A83AB83BC8349815A816B811B
:1000F0007C818D819E81AF81B885481759076A0739
:100100007B0740F30000000060960FB6F894DEBF56
:100110000FBECDBFDF91CF910895CF93DF930F92A4
:10012000CDB7DEB787E290E0FC0110828AE290E072
:100130002CEFFC01208381E089838BE290E0298110
:10014000220F220FFC01208386E290E0FC018081D7
:10015000882F90E081709927892B79F364E170E012
:1001600080E090E00E94400086E290E0FC01808107
:10017000882F90E081709927892BF9F289818F5F10
:100180008983DBCF0E94CD00A59F900DB49F900D79
:10019000A49F800D911D11240895A29FB001B39FCB
:1001A000C001A39F700D811D1124911DB29F700D80
:0C01B000811D1124911D0895F894FFCFCB
:00000001FF
