:100000000C9434000C9446000C9446000C9446006A
:100010000C9446000C9446000C9446000C94460048
:100020000C9446000C9446000C9446000C94460038
:100030000C9446000C9446000C9446000C94460028
:100040000C9446000C9446000C943B150C9446000E
:100050000C9446000C9446000C9446000C94460008
:100060000C9446000C94460011241FBECFEFD8E03C
:10007000DEBFCDBF21E0A0E0B1E001C01D92AA30FB
:10008000B207E1F70E9489150C94C9170C9400007F
:10009000CF93DF93CDB7DEB7C854D1090FB6F8942C
:1000A000DEBF0FBECDBF85E290E0DC012C9185E282
:1000B00090E02061FC01208380E090E0A0E8BFE3B5
:1000C00089839A83AB83BC832BEA3AEA4AEA50E4F9
:1000D00069817A818B819C810E945C176DA37EA3CC
:1000E0008FA398A78DA19EA1AFA1B8A58D839E8354
:1000F000AF83B88720E030E040E850E469817A813E
:100100008B819C810E945C1769A77AA78BA79CA70B
:1001100089A59AA5ABA5BCA589879A87AB87BC871B
:1001200020E030E040E85FE36D817E818F8198853B
:100130000E943C1688231CF481E08D87E5C020E0F6
:100140003FEF4FE757E469857A858B859C850E9450
:10015000571718160CF09EC020E030E04AE754E430
:1001600069817A818B819C810E9441166DA77EA74F
:100170008FA798AB8DA59EA5AFA5B8A98E879F87A1
:10018000A88BB98B20E030E04AE755E46E857F8587
:10019000888999890E945C1769AB7AAB8BAB9CAB61
:1001A00089A99AA9ABA9BCA98A8B9B8BAC8BBD8B67
:1001B00020E030E040E85FE36A897B898C899D8993
:1001C0000E943C1688232CF481E090E09F8B8E8B5C
:1001D00056C020E03FEF4FE757E46A897B898C895E
:1001E0009D890E9457171816D4F520E030E040E2B0
:1001F00051E46E857F85888999890E945C176DAB73
:100200007EAB8FAB98AF8DA99EA9AFA9B8AD89A3DE
:100210009AA3ABA3BCA369A17AA18BA19CA10E94C4
:10022000B31669AF7AAF8BAF9CAFA9ADBAADBF8B38
:10023000AE8B10C080E991E0998F888F888D998D61
:100240000197F1F7998F888F00008E899F89019718
:100250009F8B8E8B8E899F89892B61F755C06A8908
:100260007B898C899D890E94B31621966CAF7DAFE6
:100270008EAF9FAF2197EDADFEADFF8BEE8B8E89DC
:100280009F899B8F8A8F8A8D9B8D0197F1F79B8F1A
:100290008A8F3AC020E030E04FE753E46D817E81E1
:1002A0008F8198850E9457171816F4F469857A850E
:1002B0008B859C850E94B31625966CAF7DAF8EAF63
:1002C0009FAF259723968EAD9FAD23979D8F8C8FE3
:1002D0008C8D9D8D9F8F8E8F8E8D9F8D0197F1F7C9
:1002E0009F8F8E8F000017C06D817E818F819885D2
:1002F0000E94B31629966CAF7DAF8EAF9FAF299742
:1003000026969FAD26979D878D8588A388A18A957F
:10031000F1F788A3000085E290E0DC012C9185E2F2
:1003200090E02F7EFC0120830000C85BDF4F0FB6FA
:10033000F894DEBF0FBECDBFDF91CF910895CF936C
:10034000DF9300D00F92CDB7DEB78A836B838B81AA
:10035000882351F08BE290E0FC0120818BE290E059
:100360002460FC01208309C08BE290E0FC01208125
:100370008BE290E02B7FFC0120838BE290E0FC017C
:1003800020818BE290E0277FFC01208384E290E0D3
:10039000FC01208184E290E02F60FC01208385E253
:1003A00090E0FC018081807F89838A8182958F70B3
:1003B000982F8981292F282B85E290E0FC0120834A
:1003C0000E9448008A81982F9F708981292F282BAD
:1003D00085E290E0FC0120830E94480085E290E0E5
:1003E00029812F60FC01208300000F900F900F9057
:1003F000DF91CF9108950F931F93CF93DF93CDB7E4
:10040000DEB7CA5DD1090FB6F894DEBF0FBECDBF0F
:100410009E012E593F4FD9018C93CE018E599F4F8B
:10042000FC018081882351F08BE290E0DC012C916B
:100430008BE290E02460FC01208309C08BE290E015
:10044000DC012C918BE290E02B7FFC0120838BE27E
:1004500090E0DC012C918BE290E02860FC0120838D
:1004600084E290E0DC012C9184E290E0207FFC01AA
:10047000208385E290E0DC012C9185E290E0206110
:10048000FC0120839E012E5B3F4F80E090E0A0E8BE
:10049000BFE3F90180839183A283B3838E010A5B5A
:1004A0001F4FCE018E5B9F4F2BEA3AEA4AEA50E497
:1004B000DC016D917D918D919C910E945C17E3967A
:1004C0006CAF7DAF8EAF9FAFE397E3968CAD9DADE4
:1004D000AEADBFADE397F80180839183A283B38370
:1004E0008E01065B1F4FCE018E5B9F4F20E030E0F8
:1004F00040E850E4DC016D917D918D919C910E94CA
:100500005C17E7966CAF7DAF8EAF9FAFE797E7962E
:100510008CAD9DADAEADBFADE797F8018083918303
:10052000A283B383CE018A5B9F4F20E030E040E896
:100530005FE3DC016D917D918D919C910E943C1651
:1005400088233CF4CE01825B9F4F21E0FC01208395
:100550008DC1CE01865B9F4F20E03FEF4FE757E410
:10056000DC016D917D918D919C910E945717181619
:100570000CF016C1CE018E5B9F4F20E030E04AE7C1
:1005800054E4FC0160817181828193810E94411653
:10059000EB966CAF7DAF8EAF9FAFEB97EB968CADCC
:1005A0009DADAEADBFADEB979E01215B3F4FF90115
:1005B00080839183A283B3838E010D5A1F4FCE0196
:1005C000815B9F4F20E030E04AE755E4DC016D910C
:1005D0007D918D919C910E945C17EF966CAF7DAFE1
:1005E0008EAF9FAFEF97EF968CAD9DADAEADBFAD2B
:1005F000EF97F80180839183A283B383CE018D5A54
:100600009F4F20E030E040E85FE3DC016D917D9199
:100610008D919C910E943C1688234CF4CE01895AFE
:100620009F4F21E030E0FC01318320839EC0CE014A
:100630008D5A9F4F20E03FEF4FE757E4DC016D916B
:100640007D918D919C910E94571718160CF06FC0E8
:10065000CE01815B9F4F20E030E040E251E4FC019D
:1006600060817181828193810E945C17C158DF4F44
:10067000688379838A839B83CF57D040C158DF4FEB
:1006800088819981AA81BB81CF57D040AF968CAF2A
:100690009DAFAEAFBFAFAF978E01095A1F4FAF9658
:1006A0006CAD7DAD8EAD9FADAF970E94B316CD57AB
:1006B000DF4F688379838A839B83C358D040CD57AB
:1006C000DF4FE881F981C358D040D801ED93FC9306
:1006D00025C0CE01875A9F4F20E931E0DC012D93E0
:1006E0003C93CE01875A9F4FFC01808191810197F5
:1006F000F1F79E01275A3F4FD9018D939C9300003B
:10070000CE01895A9F4F9E01295A3F4FF9012081FE
:10071000318121503109DC012D933C93CE01895A5E
:100720009F4FFC0180819181892B99F69FC08E019A
:10073000095A1F4FCE018D5A9F4FDC016D917D915B
:100740008D919C910E94B316C957DF4F68837983BE
:100750008A839B83C758D040C957DF4F88819981CE
:10076000C758D040F80191838083CE01855A9F4FAE
:100770009E01295A3F4FD9012D913C91FC013183B3
:100780002083CE01855A9F4FDC018D919C9101976A
:10079000F1F79E01255A3F4FF9019183808366C08E
:1007A000CE018A5B9F4F20E030E04FE753E4DC014D
:1007B0006D917D918D919C910E9457171816D4F5DB
:1007C0008E01035A1F4FCE01865B9F4FFC01608153
:1007D0007181828193810E94B316C557DF4F688370
:1007E00079838A839B83CB58D040C557DF4FE881FC
:1007F000F981CB58D040D801ED93FC93CE01815ABA
:100800009F4F9E01235A3F4FD9012D913C91FC01EE
:1008100031832083CE01815A9F4FDC018D919C91C1
:100820000197F1F79E01215A3F4FF901918380838F
:10083000000034C08E01025B1F4FCE018A5B9F4FC8
:10084000DC016D917D918D919C910E94B316C157F1
:10085000DF4F688379838A839B83CF58D040C15709
:10086000DF4F8881CF58D040F8018083CE018F5967
:100870009F4F9E01225B3F4FD9012C91FC012083A9
:10088000CE018F599F4FDC018C91282F2A95F1F7CB
:10089000CE018F599F4FFC012083000083E290E03E
:1008A000DC018C91282F2295207FCE01805C9F4F08
:1008B000FC01208385E290E0DC012C9185E290E050
:1008C0002F7EFC01208380E090E0A0E8BFE38B83D3
:1008D0009C83AD83BE832BEA3AEA4AEA50E46B81FB
:1008E0007C818D819E810E945C17CD56DF4F68838D
:1008F00079838A839B83C359D040CD56DF4F88814B
:100900009981AA81BB81C359D0408F839887A987D9
:10091000BA8720E030E040E850E46B817C818D8133
:100920009E810E945C17C956DF4F688379838A8352
:100930009B83C759D040C956DF4F88819981AA81CE
:10094000BB81C759D0408B879C87AD87BE8720E08D
:1009500030E040E85FE36F81788589859A850E9461
:100960003C1688231CF481E08F8718C120E03FEFFC
:100970004FE757E46B857C858D859E850E945717D0
:1009800018160CF0C9C020E030E04AE754E46B814F
:100990007C818D819E810E944116C556DF4F688300
:1009A00079838A839B83CB59D040C556DF4F88819A
:1009B0009981AA81BB81CB59D040888B998BAA8B16
:1009C000BB8B20E030E04AE755E4688979898A8961
:1009D0009B890E945C17C156DF4F688379838A83A5
:1009E0009B83CF59D040C156DF4F88819981AA811E
:1009F000BB81CF59D0408C8B9D8BAE8BBF8B20E0C1
:100A000030E040E85FE36C897D898E899F890E9490
:100A10003C1688232CF481E090E0998F888F71C078
:100A200020E03FEF4FE757E46C897D898E899F89ED
:100A30000E94571718160CF04EC020E030E040E23C
:100A400051E4688979898A899B890E945C17CD5510
:100A5000DF4F688379838A839B83C35AD040CD5507
:100A6000DF4F88819981AA81BB81C35AD040A79664
:100A70008CAF9DAFAEAFBFAFA797A7966CAD7DAD66
:100A80008EAD9FADA7970E94B316C955DF4F6883FF
:100A900079838A839B83C75AD040C955DF4FA88189
:100AA000B981C75AD040B98FA88F10C080E991E0B2
:100AB0009B8F8A8F8A8D9B8D0197F1F79B8F8A8FF1
:100AC0000000888D998D0197998F888F888D998DD9
:100AD000892B61F763C06C897D898E899F890E940B
:100AE000B316C555DF4F688379838A839B83CB5ABE
:100AF000D040C555DF4FE881F981CB5AD040F98FFE
:100B0000E88F888D998D9D8F8C8F8C8D9D8D019711
:100B1000F1F79D8F8C8F42C020E030E04FE753E427
:100B20006F81788589859A850E945717181614F564
:100B30006B857C858D859E850E94B316C155DF4FE0
:100B4000688379838A839B83CF5AD040C155DF4F16
:100B500088819981CF5AD0409F8F8E8F8E8D9F8DA7
:100B600099A388A388A199A10197F1F799A388A3D4
:100B7000000028C06F81788589859A850E94B31608
:100B8000CD54DF4F688379838A839B83C35BD040D6
:100B9000CD54DF4F9881C35BD0409F87CE018F5BE0
:100BA0009F4F2F85DC012C93CE018F5B9F4FFC0163
:100BB0008081282F2A95F1F7CE018F5B9F4FDC01B2
:100BC0002C93000085E290E0FC01208185E290E01A
:100BD0002061DC012C9380E090E0A0E8BFE38CA7CB
:100BE0009DA7AEA7BFA72BEA3AEA4AEA50E46CA554
:100BF0007DA58EA59FA50E945C17C954DF4F688311
:100C000079838A839B83C75BD040C954DF4F888137
:100C10009981AA81BB81C75BD04088AB99ABAAAB55
:100C2000BBAB20E030E040E850E46CA57DA58EA58C
:100C30009FA50E945C17C554DF4F688379838A8320
:100C40009B83CB5BD040C554DF4F88819981AA81BB
:100C5000BB81CB5BD0408CAB9DABAEABBFAB20E0E0
:100C600030E040E85FE368A979A98AA99BA90E94BE
:100C70003C1688231CF481E0898318C120E03FEFF3
:100C80004FE757E46CA97DA98EA99FA90E94571729
:100C900018160CF0C9C020E030E04AE754E46CA517
:100CA0007DA58EA59FA50E944116C154DF4F688384
:100CB00079838A839B83CF5BD040C154DF4F888187
:100CC0009981AA81BB81CF5BD04088AF99AFAAAF91
:100CD000BBAF20E030E04AE755E468AD79AD8AADBE
:100CE0009BAD0E945C17CD53DF4F688379838A8365
:100CF0009B83C35CD040CD53DF4F88819981AA810B
:100D0000BB81C35CD0408CAF9DAFAEAFBFAF20E026
:100D100030E040E85FE36CAD7DAD8EAD9FAD0E94ED
:100D20003C1688232CF481E090E09FA38EA371C031
:100D300020E03FEF4FE757E46CAD7DAD8EAD9FAD4A
:100D40000E94571718160CF04EC020E030E040E229
:100D500051E468AD79AD8AAD9BAD0E945C17C95373
:100D6000DF4F688379838A839B83C75CD040C953F4
:100D7000DF4F88819981AA81BB81C75CD040AB9647
:100D80008CAF9DAFAEAFBFAFAB97AB966CAD7DAD4B
:100D90008EAD9FADAB970E94B316C553DF4F6883EE
:100DA00079838A839B83CB5CD040C553DF4FA88176
:100DB000B981CB5CD040BFA3AEA310C080E991E065
:100DC0009BA78AA78AA59BA50197F1F79BA78AA74E
:100DD00000008EA19FA101979FA38EA38EA19FA12A
:100DE000892B61F763C06CAD7DAD8EAD9FAD0E9468
:100DF000B316C153DF4F688379838A839B83CF5CAB
:100E0000D040C153DF4FE881F981CF5CD040FFA3D0
:100E1000EEA38EA19FA199A788A788A599A5019760
:100E2000F1F799A788A742C020E030E04FE753E4EC
:100E300068A979A98AA99BA90E945717181614F5C1
:100E40006CA97DA98EA99FA90E94B316CD52DF4F30
:100E5000688379838A839B83C35DD040CD52DF4F03
:100E600088819981C35DD0409BA38AA38AA19BA15D
:100E70009DA38CA38CA19DA10197F1F79DA38CA3A9
:100E800000001BC068A979A98AA99BA90E94B31672
:100E9000C952DF4F688379838A839B83C75DD040C3
:100EA000C952DF4F9881C75DD040998389818A8379
:100EB0008A818A95F1F78A83000083E290E0DC0161
:100EC0008C91882F90E08F709927282FCE01805C1D
:100ED0009F4FFC018081282BCE01805C9F4FDC015D
:100EE0002C9385E290E0FC01208185E290E02F7E4A
:100EF000DC012C93CE01805C9F4FFC018081C652A7
:100F0000DF4F0FB6F894DEBF0FBECDBFDF91CF919C
:100F10001F910F9108951F93CF93DF93CDB7DEB745
:100F2000C854D1090FB6F894DEBF0FBECDBF000084
:100F300080E00E94FB01182F812F8823CCF380E0F2
:100F400090E0A0E8B0E489839A83AB83BC832BEA6A
:100F50003AEA4AEA50E469817A818B819C810E9455
:100F60005C176DA37EA38FA398A78DA19EA1AFA1AF
:100F7000B8A58D839E83AF83B88720E030E040E83A
:100F800050E469817A818B819C810E945C1769A7FA
:100F90007AA78BA79CA789A59AA5ABA5BCA589878D
:100FA0009A87AB87BC8720E030E040E85FE36D8143
:100FB0007E818F8198850E943C1688231CF481E0F5
:100FC0008D87E5C020E03FEF4FE757E469857A85DC
:100FD0008B859C850E94571718160CF09EC020E048
:100FE00030E04AE754E469817A818B819C810E94D8
:100FF00041166DA77EA78FA798AB8DA59EA5AFA51F
:10100000B8A98E879F87A88BB98B20E030E04AE78C
:1010100055E46E857F85888999890E945C1769AB44
:101020007AAB8BAB9CAB89A99AA9ABA9BCA98A8BDB
:101030009B8BAC8BBD8B20E030E040E85FE36A899E
:101040007B898C899D890E943C1688232CF481E041
:1010500090E09F8B8E8B56C020E03FEF4FE757E428
:101060006A897B898C899D890E9457171816D4F547
:1010700020E030E040E251E46E857F8588899989DF
:101080000E945C176DAB7EAB8FAB98AF8DA99EA90C
:10109000AFA9B8AD89A39AA3ABA3BCA369A17AA158
:1010A0008BA19CA10E94B31669AF7AAF8BAF9CAFA6
:1010B000A9ADBAADBF8BAE8B10C080E991E0998F1E
:1010C000888F888D998D0197F1F7998F888F00000F
:1010D0008E899F8901979F8B8E8B8E899F89892B03
:1010E00061F755C06A897B898C899D890E94B316F6
:1010F00021966CAF7DAF8EAF9FAF21978DAD9EAD2A
:101100009F8B8E8B8E899F899B8F8A8F8A8D9B8DDB
:101110000197F1F79B8F8A8F3AC020E030E04FE7CC
:1011200053E46D817E818F8198850E945717181630
:10113000F4F469857A858B859C850E94B316259683
:101140006CAF7DAF8EAF9FAF25972396AEADBFAD91
:101150002397BD8FAC8F8C8D9D8D9F8F8E8F8E8DA5
:101160009F8D0197F1F79F8F8E8F000017C06D81C3
:101170007E818F8198850E94B31629966CAF7DAFD2
:101180008EAF9FAF29972696BFAD2697BD878D85D9
:1011900088A388A18A95F1F788A3000080E00E94C7
:1011A000FB01C85BDF4F0FB6F894DEBF0FBECDBFAB
:1011B000DF91CF911F9108951F93CF93DF930F92EB
:1011C000CDB7DEB789838981803410F410E401C083
:1011D00010E080E8810F0E94F30800000F90DF917B
:1011E000CF911F910895CF93DF930F92CDB7DEB7C4
:1011F00089830E948B0760E089810E949F01000023
:101200000F90DF91CF910895CF93DF930F92CDB7D9
:10121000DEB789830E948B0761E089810E949F016C
:1012200000000F90DF91CF910895CF93DF9300D00E
:10123000CDB7DEB789836A838A81882329F48981BF
:1012400080580E94F30804C0898180540E94F308EA
:1012500000000F900F90DF91CF910895CF93DF930F
:10126000CDB7DEB70E948B07882F90E0DF91CF913A
:101270000895CF93DF93CDB7DEB781E00E94F308E6
:101280000000DF91CF910895CF93DF93CDB7DEB704
:1012900082E00E94F3080000DF91CF910895CF9380
:1012A000DF9300D0CDB7DEB78A830E948B07898396
:1012B0008A818A3021F489810E94DC0804C08A81F5
:1012C00061E00E949F0100000F900F90DF91CF918D
:1012D00008951F93CF93DF9300D0CDB7DEB79A83E5
:1012E000898303C0812F0E944F0989819A819C01C3
:1012F0002F5F3F4F3A832983FC011081112391F71F
:10130000000000000F900F90DF91CF911F91089582
:101310001F93CF93DF9300D000D00F92CDB7DEB7ED
:101320009D838C8303C0812F0E944F098C819D81F6
:101330009C012F5F3F4F3D832C839A838983898152
:101340009A81FC0184918B838B81182F112359F78B
:10135000000000000F900F900F900F900F90DF9102
:10136000CF911F9108950F931F93CF93DF93CDB724
:10137000DEB7C956D1400FB6F894DEBF0FBECDBF61
:101380009E012F553F4FD9018C9384E290E0FC01E0
:10139000208184E290E02F60DC012C938AE290E0CF
:1013A000FC0120818AE290E02460DC012C938AE237
:1013B00090E0FC0120818AE290E02860DC012C931F
:1013C00084E290E0FC01208184E290E02061DC0175
:1013D0002C939E012F573F4F80E090E0AAE7B6E4A0
:1013E000F90180839183A283B3838E010B571F4F32
:1013F000CE018F579F4F2BEA3AEA4AEA50E4DC01CC
:101400006D917D918D919C910E945C17CA54DF4F24
:10141000688379838A839B83C65BD040CA54DF4F3D
:1014200088819981AA81BB81C65BD040F801808305
:101430009183A283B3838E0107571F4FCE018F572D
:101440009F4F20E030E040E850E4DC016D917D9159
:101450008D919C910E945C17C654DF4F68837983FD
:101460008A839B83CA5BD040C654DF4F88819981B1
:10147000AA81BB81CA5BD040F80180839183A2839B
:10148000B383CE018B579F4F20E030E040E85FE30D
:10149000DC016D917D918D919C910E943C16882379
:1014A0003CF4CE0183579F4F21E0FC01208399C17A
:1014B000CE0187579F4F20E03FEF4FE757E4DC0115
:1014C0006D917D918D919C910E94571718160CF08B
:1014D00022C1CE018F579F4F20E030E04AE754E40D
:1014E000FC0160817181828193810E944116C25406
:1014F000DF4F688379838A839B83CE5BD040C2545D
:10150000DF4F88819981AA81BB81CE5BD0409E014B
:1015100022573F4FF90180839183A283B3838E01C9
:101520000E561F4FCE0182579F4F20E030E04AE712
:1015300055E4DC016D917D918D919C910E945C1729
:10154000CE53DF4F688379838A839B83C25CD0400C
:10155000CE53DF4F88819981AA81BB81C25CD04084
:10156000F80180839183A283B383CE018E569F4F6F
:1015700020E030E040E85FE3DC016D917D918D91EA
:101580009C910E943C1688234CF4CE018A569F4FB2
:1015900021E030E0FC0131832083A2C0CE018E56D1
:1015A0009F4F20E03FEF4FE757E4DC016D917D91C5
:1015B0008D919C910E94571718160CF073C0CE01A4
:1015C00082579F4F20E030E040E251E4FC0160810F
:1015D0007181828193810E945C17CA53DF4F6883B7
:1015E00079838A839B83C65CD040CA53DF4F88814E
:1015F0009981AA81BB81C65CD040CE54DF4F8883DD
:101600009983AA83BB83C25BD0408E010A561F4FC9
:10161000CE54DF4F688179818A819B81C25BD04043
:101620000E94B316C653DF4F688379838A839B83F6
:10163000CA5CD040C653DF4FE881F981CA5CD04014
:10164000D801ED93FC9325C0CE0188569F4F20E929
:1016500031E0DC012D933C93CE0188569F4FFC0175
:10166000808191810197F1F79E0128563F4FD90162
:101670008D939C930000CE018A569F4F9E012A565F
:101680003F4FF9012081318121503109DC012D9337
:101690003C93CE018A569F4FFC0180819181892B1A
:1016A00099F69FC08E010A561F4FCE018E569F4F4E
:1016B000DC016D917D918D919C910E94B316C25376
:1016C000DF4F688379838A839B83CE5CD040C2538B
:1016D000DF4F88819981CE5CD040F801918380836F
:1016E000CE0186569F4F9E012A563F4FD9012D911C
:1016F0003C91FC0131832083CE0186569F4FDC0153
:101700008D919C910197F1F79E0126563F4FF9016B
:101710009183808366C0CE018B579F4F20E030E0DD
:101720004FE753E4DC016D917D918D919C910E9476
:1017300057171816D4F58E0104561F4FCE01875740
:101740009F4FFC0160817181828193810E94B31659
:10175000CE52DF4F688379838A839B83C25DD040FA
:10176000CE52DF4FE881F981C25DD040D801ED93C0
:10177000FC93CE0182569F4F9E0124563F4FD901C4
:101780002D913C91FC0131832083CE0182569F4FE5
:10179000DC018D919C910197F1F79E0122563F4FFC
:1017A000F90191838083000034C08E0103571F4FDD
:1017B000CE018B579F4FDC016D917D918D919C9156
:1017C0000E94B316CA52DF4F688379838A839B8352
:1017D000C65DD040CA52DF4F8881C65DD040F80157
:1017E0008083CE0180569F4F9E0123573F4FD901E2
:1017F0002C91FC012083CE0180569F4FDC018C91FF
:10180000282F2A95F1F7CE0180569F4FFC012083A7
:10181000000085E290E0DC012C9185E290E02260FE
:10182000FC01208385E290E0DC012C9185E290E0D0
:101830002160FC0120830E9448009E012F593F4FE8
:1018400080E090E4ACE9B5E4F90180839183A28360
:10185000B3838E010B591F4FCE018F599F4F2BEA37
:101860003AEA4AEA50E4DC016D917D918D919C91B8
:101870000E945C17C652DF4F688379838A839B83FB
:10188000CA5DD040C652DF4F88819981AA81BB8151
:10189000CA5DD040F80180839183A283B3838E0117
:1018A00007591F4FCE018F599F4F20E030E040E88D
:1018B00050E4DC016D917D918D919C910E945C17AB
:1018C000C252DF4F688379838A839B83CE5DD04089
:1018D000C252DF4F88819981AA81BB81CE5DD04001
:1018E000F80180839183A283B383CE018B599F4FEC
:1018F00020E030E040E85FE3DC016D917D918D9167
:101900009C910E943C1688233CF4CE0183599F4F42
:1019100021E0FC01208399C1CE0187599F4F20E02F
:101920003FEF4FE757E4DC016D917D918D919C91E4
:101930000E94571718160CF022C1CE018F599F4FE5
:1019400020E030E04AE754E4FC016081718182814B
:1019500093810E944116CE51DF4F688379838A8339
:101960009B83C25ED040CE51DF4F88819981AA818E
:10197000BB81C25ED0409E0122593F4FF901808356
:101980009183A283B3838E010E581F4FCE018259DB
:101990009F4F20E030E04AE755E4DC016D917D91F6
:1019A0008D919C910E945C17CA51DF4F68837983A7
:1019B0008A839B83C65ED040CA51DF4F888199815C
:1019C000AA81BB81C65ED040F80180839183A28347
:1019D000B383CE018E589F4F20E030E040E85FE3B4
:1019E000DC016D917D918D919C910E943C16882324
:1019F0004CF4CE018A589F4F21E030E0FC01318346
:101A00002083A2C0CE018E589F4F20E03FEF4FE7CA
:101A100057E4DC016D917D918D919C910E94571747
:101A200018160CF073C0CE0182599F4F20E030E0B1
:101A300040E251E4FC0160817181828193810E94C6
:101A40005C17C651DF4F688379838A839B83CA5EA4
:101A5000D040C651DF4F88819981AA81BB81CA5E7F
:101A6000D040C255DF4F88839983AA83BB83CE5A67
:101A7000D0408E010A581F4FC255DF4F68817981CF
:101A80008A819B81CE5AD0400E94B316C251DF4F4B
:101A9000688379838A839B83CE5ED040C251DF4FB7
:101AA000E881F981CE5ED040D801ED93FC9325C04A
:101AB000CE0188589F4F20E931E0DC012D933C9303
:101AC000CE0188589F4FFC01808191810197F1F7E9
:101AD0009E0128583F4FD9018D939C930000CE0161
:101AE0008A589F4F9E012A583F4FF901208131812A
:101AF00021503109DC012D933C93CE018A589F4F30
:101B0000FC0180819181892B99F69FC08E010A5832
:101B10001F4FCE018E589F4FDC016D917D918D91AD
:101B20009C910E94B316CE50DF4F688379838A83DD
:101B30009B83C25FD040CE50DF4F88819981C25FC6
:101B4000D040F80191838083CE0186589F4F9E013B
:101B50002A583F4FD9012D913C91FC0131832083BC
:101B6000CE0186589F4FDC018D919C910197F1F732
:101B70009E0126583F4FF9019183808366C0CE01B4
:101B80008B599F4F20E030E04FE753E4DC016D912B
:101B90007D918D919C910E9457171816D4F58E0156
:101BA00004581F4FCE0187599F4FFC0160817181FE
:101BB000828193810E94B316CA50DF4F6883798374
:101BC0008A839B83C65FD040CA50DF4FE881F9818A
:101BD000C65FD040D801ED93FC93CE0182589F4F51
:101BE0009E0124583F4FD9012D913C91FC01318336
:101BF0002083CE0182589F4FDC018D919C910197EB
:101C0000F1F79E0122583F4FF90191838083000034
:101C100034C08E0103591F4FCE018B599F4FDC01F9
:101C20006D917D918D919C910E94B316C650DF4FAE
:101C3000688379838A839B83CA5FD040C650DF4F15
:101C40008881CA5FD040F8018083CE0180589F4FC1
:101C50009E0123593F4FD9012C91FC012083CE01D5
:101C600080589F4FDC018C91282F2A95F1F7CE01E7
:101C700080589F4FFC01208300000E9448009E0175
:101C80002F5B3F4F80E090E0A0E8B2E4F901808351
:101C90009183A283B3838E010B5B1F4FCE018F5BB9
:101CA0009F4F2BEA3AEA4AEA50E4DC016D917D91BC
:101CB0008D919C910E945C17C250DF4F688379839D
:101CC0008A839B83CE5FD040C250DF4F8881998149
:101CD000AA81BB81CE5FD040F80180839183A2832B
:101CE000B3838E01075B1F4FCE018F5B9F4F20E0B8
:101CF00030E040E850E4DC016D917D918D919C9144
:101D00000E945C17CE5FDE4F688379838A839B8352
:101D1000C250D140CE5FDE4F88819981AA81BB81BC
:101D2000C250D140F80180839183A283B383CE0156
:101D30008B5B9F4F20E030E040E85FE3DC016D917A
:101D40007D918D919C910E943C1688233CF4CE019C
:101D5000835B9F4F21E0FC01208399C1CE01875B0B
:101D60009F4F20E03FEF4FE757E4DC016D917D91FD
:101D70008D919C910E94571718160CF022C1CE012C
:101D80008F5B9F4F20E030E04AE754E4FC01608124
:101D90007181828193810E944116CA5FDE4F688300
:101DA00079838A839B83C650D140CA5FDE4F888186
:101DB0009981AA81BB81C650D1409E01225B3F4FD1
:101DC000F90180839183A283B3838E010E5A1F4F42
:101DD000CE01825B9F4F20E030E04AE755E4DC0112
:101DE0006D917D918D919C910E945C17C65FDE4F35
:101DF000688379838A839B83CA50D140C65FDE4F54
:101E000088819981AA81BB81CA50D140F801808321
:101E10009183A283B383CE018E5A9F4F20E030E09E
:101E200040E85FE3DC016D917D918D919C910E9472
:101E30003C1688234CF4CE018A5A9F4F21E030E0B3
:101E4000FC0131832083A2C0CE018E5A9F4F20E037
:101E50003FEF4FE757E4DC016D917D918D919C91AF
:101E60000E94571718160CF073C0CE01825B9F4F6B
:101E700020E030E040E251E4FC0160817181828128
:101E800093810E945C17C25FDE4F688379838A83E7
:101E90009B83CE50D140C25FDE4F88819981AA8159
:101EA000BB81CE50D140C655DF4F88839983AA832A
:101EB000BB83CA5AD0408E010A5A1F4FC655DF4F06
:101EC000688179818A819B81CA5AD0400E94B31669
:101ED000CE5EDE4F688379838A839B83C251D14073
:101EE000CE5EDE4FE881F981C251D140D801ED9339
:101EF000FC9325C0CE01885A9F4F20E931E0DC01D8
:101F00002D933C93CE01885A9F4FFC018081918193
:101F10000197F1F79E01285A3F4FD9018D939C9369
:101F20000000CE018A5A9F4F9E012A5A3F4FF90165
:101F30002081318121503109DC012D933C93CE0168
:101F40008A5A9F4FFC0180819181892B99F69FC00D
:101F50008E010A5A1F4FCE018E5A9F4FDC016D91A0
:101F60007D918D919C910E94B316CA5EDE4F68836D
:101F700079838A839B83C651D140CA5EDE4F8881B4
:101F80009981C651D140F80191838083CE01865A50
:101F90009F4F9E012A5A3F4FD9012D913C91FC0140
:101FA00031832083CE01865A9F4FDC018D919C9115
:101FB0000197F1F79E01265A3F4FF90191838083E3
:101FC00066C0CE018B5B9F4F20E030E04FE753E4CB
:101FD000DC016D917D918D919C910E94571718168F
:101FE000D4F58E01045A1F4FCE01875B9F4FFC0131
:101FF00060817181828193810E94B316C65EDE4F3B
:10200000688379838A839B83CA51D140C65EDE4F41
:10201000E881F981CA51D140D801ED93FC93CE01FA
:10202000825A9F4F9E01245A3F4FD9012D913C91D6
:10203000FC0131832083CE01825A9F4FDC018D91B8
:102040009C910197F1F79E01225A3F4FF90191832C
:102050008083000034C08E01035B1F4FCE018B5B79
:102060009F4FDC016D917D918D919C910E94B316E3
:10207000C25EDE4F688379838A839B83CE51D140D1
:10208000C25EDE4F8881CE51D140F8018083CE01FF
:10209000805A9F4F9E01235B3F4FD9012C91FC0139
:1020A0002083CE01805A9F4FDC018C91282F2A95E6
:1020B000F1F7CE01805A9F4FFC01208300000E945F
:1020C000480080E090E0A0E8B2E489A39AA3ABA323
:1020D000BCA32BEA3AEA4AEA50E469A17AA18BA1AF
:1020E0009CA10E945C17CE5DDE4F688379838A8352
:1020F0009B83C252D140CE5DDE4F88819981AA81F7
:10210000BB81C252D1408DA39EA3AFA3B8A720E04C
:1021100030E040E850E469A17AA18BA19CA10E9423
:102120005C17CA5DDE4F688379838A839B83C652BE
:10213000D140CA5DDE4F88819981AA81BB81C65298
:10214000D14089A79AA7ABA7BCA720E030E040E820
:102150005FE36DA17EA18FA198A50E943C16882304
:102160001CF481E08DA71CC120E03FEF4FE757E44E
:1021700069A57AA58BA59CA50E94571718160CF087
:10218000CDC020E030E04AE754E469A17AA18BA1F8
:102190009CA10E944116C65DDE4F688379838A83C5
:1021A0009B83CA52D140C65DDE4F88819981AA8146
:1021B000BB81CA52D1408EA79FA7A8ABB9AB20E084
:1021C00030E04AE755E46EA57FA588A999A90E9449
:1021D0005C17C25DDE4F688379838A839B83CE520E
:1021E000D140C25DDE4F88819981AA81BB81CE52E8
:1021F000D1408AAB9BABACABBDAB20E030E040E85C
:102200005FE36AA97BA98CA99DA90E943C1688233B
:102210002CF481E090E09FAB8EAB75C020E03FEFE7
:102220004FE757E46AA97BA98CA99DA90E9457177B
:1022300018160CF052C020E030E040E251E46EA5E8
:102240007FA588A999A90E945C17CE5CDE4F6883A0
:1022500079838A839B83C253D140CE5CDE4F8881D1
:102260009981AA81BB81C253D140CA55DF4F88836F
:102270009983AA83BB83C65AD040CA55DF4F688171
:1022800079818A819B81C65AD0400E94B316CA5C6C
:10229000DE4F688379838A839B83C653D140CA5CAF
:1022A000DE4FA881B981C653D140BFABAEAB10C0E1
:1022B00080E991E099AF88AF88AD99AD0197F1F7CA
:1022C00099AF88AF00008EA99FA901979FAB8EABF5
:1022D0008EA99FA9892B61F763C06AA97BA98CA9E4
:1022E0009DA90E94B316C65CDE4F688379838A83FA
:1022F0009B83CA53D140C65CDE4FE881F981CA5343
:10230000D140FFABEEAB8EA99FA99BAF8AAF8AAD40
:102310009BAD0197F1F79BAF8AAF42C020E030E060
:102320004FE753E46DA17EA18FA198A50E94571796
:10233000181614F569A57AA58BA59CA50E94B3165D
:10234000C25CDE4F688379838A839B83CE53D140FE
:10235000C25CDE4F88819981CE53D1409DAF8CAF56
:102360008CAD9DAD9FAF8EAF8EAD9FAD0197F1F758
:102370009FAF8EAF000028C06DA17EA18FA198A550
:102380000E94B316CE5BDE4F688379838A839B837A
:10239000C254D140CE5BDE4F9881C254D1409DA73C
:1023A0002DA5CE01805C9F4FDC012C93CE01805C7B
:1023B0009F4FFC018081282F2A95F1F7CE01805C88
:1023C0009F4FDC012C93000085E290E0FC0120810E
:1023D00085E290E02E7FDC012C930E94480080E093
:1023E00090E0A0E8B2E48B879C87AD87BE872BEA9C
:1023F0003AEA4AEA50E46B857C858D859E850E9489
:102400005C17CA5BDE4F688379838A839B83C654DB
:10241000D140CA5BDE4F88819981AA81BB81C654B5
:10242000D1408F87988BA98BBA8B20E030E040E8B1
:1024300050E46B857C858D859E850E945C17C65B0C
:10244000DE4F688379838A839B83CA54D140C65BFD
:10245000DE4F88819981AA81BB81CA54D1408B8B80
:102460009C8BAD8BBE8B20E030E040E85FE36F8556
:10247000788989899A890E943C1688231CF481E016
:102480008F8B1CC120E03FEF4FE757E46B897C89BD
:102490008D899E890E94571718160CF0CDC020E038
:1024A00030E04AE754E46B857C858D859E850E94EB
:1024B0004116C25BDE4F688379838A839B83CE5447
:1024C000D140C25BDE4F88819981AA81BB81CE5405
:1024D000D14089839A83AB83BC8320E030E04AE714
:1024E00055E469817A818B819C810E945C17CE5A68
:1024F000DE4F688379838A839B83C255D140CE5A4D
:10250000DE4F88819981AA81BB81C255D1408D83DC
:102510009E83AF83B88720E030E040E85FE36D81C1
:102520007E818F8198850E943C1688232CF481E05F
:1025300090E09A87898775C020E03FEF4FE757E426
:102540006D817E818F8198850E94571718160CF037
:1025500052C020E030E040E251E469817A818B8111
:102560009C810E945C17CA5ADE4F688379838A83F4
:102570009B83C655D140CA5ADE4F88819981AA8172
:10258000BB81C655D140CE55DF4F88839983AA833E
:10259000BB83C25AD040CE55DF4F688179818A8192
:1025A0009B81C25AD0400E94B316C65ADE4F688340
:1025B00079838A839B83CA55D140C65ADE4FA8814E
:1025C000B981CA55D140BA87A98710C080E991E086
:1025D000998F888F888D998D0197F1F7998F888FC2
:1025E000000089859A8501979A87898789859A85C8
:1025F000892B61F763C06D817E818F8198850E94F0
:10260000B316C25ADE4F688379838A839B83CE5583
:10261000D140C25ADE4FE881F981CE55D140FA87C8
:10262000E98789859A859B8F8A8F8A8D9B8D0197F3
:10263000F1F79B8F8A8F42C020E030E04FE753E4F0
:102640006F85788989899A890E945717181614F519
:102650006B897C898D899E890E94B316CE59DE4F85
:10266000688379838A839B83C256D140CE59DE4FDB
:1026700088819981C256D1409D8F8C8F8C8D9D8D84
:102680009F8F8E8F8E8D9F8D0197F1F79F8F8E8FED
:1026900000001BC06F85788989899A890E94B316CA
:1026A000CA59DE4F688379838A839B83C656D1409B
:1026B000CA59DE4F9881C656D1409F8B8F8988A317
:1026C00088A18A95F1F788A3000088E20E94F308A8
:1026D00088E00E94F3080E94390986E00E94F3080E
:1026E000CE018F559F4FDC018C910E94F3080000B2
:1026F000C759DE4F0FB6F894DEBF0FBECDBFDF91D6
:10270000CF911F910F9108950F931F93CF93DF9354
:10271000CDB7DEB728970FB6F894DEBF0FBECDBF9A
:1027200069837A838B839C8389819A81AB81BC8105
:10273000880F991FAA1FBB1F880F991FAA1FBB1FB5
:10274000880F991FAA1FBB1F880F991FAA1FBB1FA5
:102750008C019D0180E094E2A4EFB0E08D839E8324
:10276000AF83B8876D817E818F819885A90198019B
:102770000E940B16DA01C901282F84EC90E0215049
:10278000DC012C9385EC90E0FC01108281EC90E060
:10279000DC012C9181EC90E02869FC01208382EC23
:1027A00090E026E0DC012C93000028960FB6F89408
:1027B000DEBF0FBECDBFDF91CF911F910F91089566
:1027C000CF93DF930F92CDB7DEB78983000080EC03
:1027D00090E0FC018081882F90E080729927892BFE
:1027E000B1F386EC90E02981FC01208300000F907A
:1027F000DF91CF910895CF93DF9300D00F92CDB7A3
:10280000DEB79B838A8319820EC0898191E0980F7D
:102810009983882F90E02A813B81820F931FFC01CE
:1028200080810E94E0138981882F90E02A813B817A
:10283000820F931FFC018081882339F780E20E9478
:10284000E01300000F900F900F90DF91CF9108954B
:10285000CF93DF93CDB7DEB7000080EC90E0FC01B2
:1028600080818823D4F786EC90E0FC018081DF91A1
:10287000CF910895CF93DF9300D0CDB7DEB79A8381
:1028800089830E942814282F89819A81FC01208342
:1028900089819A819C012F5F3F4F3A832983FC01F4
:1028A00080818A3071F789819A8101979A8389831F
:1028B00089819A81FC01108200000F900F90DF91B6
:1028C000CF910895CF93DF93CDB7DEB78DE00E940F
:1028D000E0138AE00E94E0130000DF91CF91089599
:1028E000CF93DF9300D000D0CDB7DEB79A83898332
:1028F0007C836B8349815A81CA01929582958F703E
:1029000089279F7089279C01A7E4B3E00E942D16B8
:1029100096958795969587959695879560E177E248
:10292000869F9001879F300D969F300D1124CA011C
:10293000821B930B96958795969587959695879587
:102940009C01A5ECB0E20E942D16929582958F70A5
:1029500089279F708927805D282F8B819C81FC01AE
:10296000208349815A81CA019695879596958795C6
:10297000969587959C01A5ECB0E20E942D16929544
:1029800082958F7089279F70892768EE73E0869FF4
:102990009001879F300D969F300D1124CA01821B34
:1029A000930B96958795969587959C01ABE7B4E137
:1029B0000E942D169695879520E3280F8B819C8188
:1029C0000196FC01208349815A81CA019695879519
:1029D000969587959C01ABE7B4E10E942D169695DC
:1029E000879564E6689F9001699F300D1124CA01A4
:1029F000821B930B9C01ADECBCEC0E942D169695AE
:102A00008795969587959695879520E3280F8B81D6
:102A10009C810296FC01208349815A819A01ADEC88
:102A2000BCEC0E942D169C0136952795369527956E
:102A300036952795C901880F991F880F991F820F16
:102A4000931F880F991F9A01281B390B822F20E3AF
:102A5000280F8B819C810396FC0120838B819C81B4
:102A60000496FC01108200000F900F900F900F90C1
:102A7000DF91CF9108951F920F920FB60F921124FC
:102A80002F933F934F935F936F937F938F939F9376
:102A9000AF93BF93EF93FF93CF93DF930F92CDB795
:102AA000DEB78FE590E0FC01808189838FE590E0BF
:102AB000FC0120818FE590E02F77FC01208386ECDC
:102AC00090E0FC018081813351F480E091E00E942C
:102AD000FB1385E091E00E94FB130E9462148FE5D6
:102AE00090E02981FC01208300000F90DF91CF91BD
:102AF000FF91EF91BF91AF919F918F917F916F91D6
:102B00005F914F913F912F910F900FBE0F901F90AB
:102B10001895CF93DF9300D0CDB7DEB78AE790E06A
:102B2000FC0120818AE790E02760FC0120838AE78E
:102B300090E0FC0120818AE790E02068FC0120837E
:102B40008CE790E0FC0120818CE790E02066FC019E
:102B500020838FE590E0FC0120818FE590E02068E4
:102B6000FC01208360E071EE80E090E00E9484131D
:102B70008CE790E0FC0120818CE790E02160FC0173
:102B800020838AE790E0FC0120818AE790E02064BE
:102B9000FC01208300008AE790E0FC018081882FFF
:102BA00090E080749927892BB1F789E790E0FC01C8
:102BB000808189838981882F90E060E071E00E94A4
:102BC00070148CE790E0FC0120818CE790E02E7F70
:102BD000FC0120838AE790E0FC0120818AE790E0F5
:102BE0002064FC01208300008AE790E0FC018081E2
:102BF000882F90E080749927892BB1F789E790E0BE
:102C0000FC0180818A838A81882F90E065E071E0F1
:102C10000E947014ADCFA1E21A2EAA1BBB1BFD01AE
:102C20000DC0AA1FBB1FEE1FFF1FA217B307E407AB
:102C3000F50720F0A21BB30BE40BF50B661F771F03
:102C4000881F991F1A9469F76095709580959095E3
:102C50009B01AC01BD01CF010895A29FB001B39FBC
:102C6000C001A39F700D811D1124911DB29F700D95
:102C7000811D1124911D08950E94E21608F481E03F
:102C800008950E9455160C941D170E94161758F0AF
:102C90000E940F1740F029F45F3F29F00C940617AB
:102CA00051110C9451170C940C170E942E1768F3B5
:102CB0009923B1F3552391F3951B550BBB27AA27F5
:102CC00062177307840738F09F5F5F4F220F331F2F
:102CD000441FAA1FA9F335D00E2E3AF0E0E832D0F7
:102CE00091505040E695001CCAF72BD0FE2F29D0FA
:102CF000660F771F881FBB1F261737074807AB07CC
:102D0000B0E809F0BB0B802DBF01FF2793585F4F40
:102D10003AF09E3F510578F00C9406170C94511729
:102D20005F3FE4F3983ED4F3869577956795B79522
:102D3000F7959F5FC9F7880F911D9695879597F92D
:102D40000895E1E0660F771F881FBB1F62177307A6
:102D50008407BA0720F0621B730B840BBA0BEE1FBB
:102D600088F7E09508950E94361788F09F5798F0ED
:102D7000B92F9927B751B0F0E1F0660F771F881F80
:102D8000991F1AF0BA95C9F714C0B13091F00E949A
:102D90005017B1E008950C945017672F782F8827AB
:102DA000B85F39F0B93FCCF3869577956795B395C1
:102DB000D9F73EF490958095709561957F4F8F4F30
:102DC0009F4F0895990F0008550FAA0BE0E8FEEFFA
:102DD00016161706E807F907C0F012161306E407DF
:102DE000F50798F0621B730B840B950B39F40A26D8
:102DF00061F0232B242B252B21F408950A2609F4B6
:102E0000A140A6958FEF811D811D089597F99F67B9
:102E100080E870E060E008959FEF80EC0895002462
:102E20000A941616170618060906089500240A942F
:102E300012161306140605060895092E0394000CB5
:102E400011F4882352F0BB0F40F4BF2B11F460FF44
:102E500004C06F5F7F4F8F4F9F4F089557FD90586D
:102E6000440F551F59F05F3F71F04795880F97FB4E
:102E7000991F61F09F3F79F0879508951216130608
:102E80001406551FF2CF4695F1DF08C01616170637
:102E90001806991FF1CF869571056105089408956C
:102EA000E894BB2766277727CB0197F908950E94FE
:102EB000E21608F48FEF08950E946F170C941D1707
:102EC0000E940F1738F00E94161720F0952311F07A
:102ED0000C9406170C940C1711240C9451170E9493
:102EE0002E1770F3959FC1F3950F50E0551F629F09
:102EF000F001729FBB27F00DB11D639FAA27F00D53
:102F0000B11DAA1F649F6627B00DA11D661F829F79
:102F10002227B00DA11D621F739FB00DA11D621F5E
:102F2000839FA00D611D221F749F3327A00D611D7B
:102F3000231F849F600D211D822F762F6A2F11245D
:102F40009F5750409AF0F1F088234AF0EE0FFF1F90
:102F5000BB1F661F771F881F91505040A9F79E3FE7
:102F6000510580F00C9406170C9451175F3FE4F361
:102F7000983ED4F3869577956795B795F795E7953D
:102F80009F5FC1F7FE2B880F911D9695879597F946
:062F90000895F894FFCF44
:00000001FF
