:100000000C9434000C943E000C943E000C943E0082
:100010000C943E000C943E000C943E000C943E0068
:100020000C943E000C943E000C943E000C943E0058
:100030000C943E000C943E000C943E000C943E0048
:100040000C943E000C943E000C943E000C943E0038
:100050000C943E000C943E000C943E000C943E0028
:100060000C943E000C943E0011241FBECFEFD8E04C
:10007000DEBFCDBF0E9431010C945C030C940000E4
:10008000CF93DF93CDB7DEB728970FB6F894DEBFD6
:100090000FBECDBF69837A838B839C8349815A814C
:1000A0006B817C8183E791E0DC019A01AB010E94C6
:1000B00027026D837E838F8398878D819E81AF8198
:1000C000B88589839A83AB83BC83000089819A8138
:1000D000AB81BC81AC01BD0141505109610971097D
:1000E00049835A836B837C83892B8A2B8B2B71F7F3
:1000F0000000000028960FB6F894DEBF0FBECDBFFB
:10010000DF91CF910895CF93DF930F92CDB7DEB7F4
:10011000898386E290E0FC018081882F90E029812C
:10012000222F30E002C0959587952A95E2F78170DD
:100130009927892B11F481E001C080E00F90DF91B5
:10014000CF910895CF93DF930F92CDB7DEB7898318
:100150008AE790E0FC0120818AE790E02760FC01BB
:1001600020838AE790E0FC0120818AE790E0206804
:10017000FC0120838CE790E0FC0120818CE790E07B
:100180002066FC0120838CE790E0FC0130818CE745
:1001900090E02981232BFC0120838AE790E0FC0179
:1001A00020818AE790E02064FC01208300008AE738
:1001B00090E0FC018081882F90E080749927892B42
:1001C000B1F789E790E0FC0180810F90DF91CF913A
:1001D0000895CF93DF930F92CDB7DEB789838AE777
:1001E00090E0FC0120818AE790E02760FC012083F9
:1001F0008AE790E0FC0120818AE790E02068FC011A
:1002000020838CE790E0FC0120818CE790E0206463
:10021000FC0120838CE790E0FC0130818CE790E0CA
:100220002981232BFC0120838AE790E0FC012081B7
:100230008AE790E02064FC01208300008AE790E0D8
:10024000FC018081882F90E080749927892BB1F779
:1002500088E790E0FC01808191810F90DF91CF9140
:100260000895CF93DF93CDB7DEB7A5970FB6F89477
:10027000DEBF0FBECDBF84E290E0DC012C9184E2B2
:1002800090E02260FC01208387E290E0DC012C9169
:1002900087E290E02E7FFC01208388E290E0DC0181
:1002A0002C9188E290E02160FC0120831B8281E098
:1002B00089831A8281E890E0DC012C9181E890E04A
:1002C0002860FC01208388E890E02CED35E0DC011B
:1002D00011963C932E9380E890E020E4FC0120836B
:1002E00080E00E9483008B8380E090E0A0EAB0E48D
:1002F0008C839D83AE83BF8320E030E04AE755E4E2
:100300006C817D818E819F810E94C7026E8B7F8B65
:10031000888F998F8E899F89A88DB98D88879987B5
:10032000AA87BB8720E030E040E85FE368857985F5
:100330008A859B850E94410288232CF481E090E00D
:100340009D878C8754C020E03FEF4FE757E46885D6
:1003500079858A859B850E94C2021816D4F520E013
:1003600030E040E251E46C817D818E819F810E946A
:10037000C7026A8F7B8F8C8F9D8F8A8D9B8DAC8DF2
:10038000BD8D8A8B9B8BAC8BBD8B6A897B898C895D
:100390009D890E9446026E8F7F8F88A399A3AE8DA0
:1003A000BF8DBD87AC8710C080E991E09F878E87A5
:1003B0008E859F850197F1F79F878E8700008C853A
:1003C0009D8501979D878C878C859D85892B61F7FD
:1003D00019C0688579858A859B850E9446026AA333
:1003E0007BA38CA39DA3EAA1FBA1FD87EC878C8551
:1003F0009D85998B888B888999890197F1F7998BCD
:10040000888B00008B818823F9F089818823E1F4AF
:100410008A81813049F481E890E0DC012C9181E807
:1004200090E02560FC0120838A81882349F481E8DB
:1004300090E0DC012C9181E890E0287FFC01208392
:100440009A8181E089278A838B81898349CF0E94A1
:100450003202A59F900DB49F900DA49F800D911D19
:1004600011240895A29FB001B39FC001A39F700DF6
:10047000811D1124911DB29F700D811D1124911DAC
:1004800008950E94750208F481E008950E94A10277
:1004900088F09F5798F0B92F9927B751B0F0E1F045
:1004A000660F771F881F991F1AF0BA95C9F714C0F5
:1004B000B13091F00E94BB02B1E008950C94BB02F0
:1004C000672F782F8827B85F39F0B93FCCF386952E
:1004D00077956795B395D9F73EF49095809570958B
:1004E00061957F4F8F4F9F4F0895990F0008550FCB
:1004F000AA0BE0E8FEEF16161706E807F907C0F0AA
:1005000012161306E407F50798F0621B730B840BB1
:10051000950B39F40A2661F0232B242B252B21F48B
:1005200008950A2609F4A140A6958FEF811D811D2B
:10053000089557FD9058440F551F59F05F3F71F0D3
:100540004795880F97FB991F61F09F3F79F087953A
:100550000895121613061406551FF2CF4695F1DFC3
:1005600008C0161617061806991FF1CF8695710553
:10057000610508940895E894BB2766277727CB0187
:1005800097F908950E94750208F48FEF08950E946C
:10059000DA020C944B030E943D0338F00E9444039E
:1005A00020F0952311F00C9434030C943A03112499
:1005B0000C94BC020E94990270F3959FC1F3950FB1
:1005C00050E0551F629FF001729FBB27F00DB11DD7
:1005D000639FAA27F00DB11DAA1F649F6627B00D67
:1005E000A11D661F829F2227B00DA11D621F739F50
:1005F000B00DA11D621F839FA00D611D221F749F5E
:100600003327A00D611D231F849F600D211D822FA4
:10061000762F6A2F11249F5750409AF0F1F08823CB
:100620004AF0EE0FFF1FBB1F661F771F881F9150F8
:100630005040A9F79E3F510580F00C9434030C9470
:10064000BC025F3FE4F3983ED4F3869577956795B7
:10065000B795F795E7959F5FC1F7FE2B880F911D22
:100660009695879597F9089597F99F6780E870E0C8
:1006700060E008959FEF80EC089500240A94161618
:10068000170618060906089500240A941216130680
:10069000140605060895092E0394000C11F488230E
:1006A00052F0BB0F40F4BF2B11F460FF04C06F5F2A
:0C06B0007F4F8F4F9F4F0895F894FFCFAD
:00000001FF
