:100000000C9434000C943E000C943E000C943E0082
:100010000C943E000C943E000C943E000C943E0068
:100020000C943E000C943E000C943E000C943E0058
:100030000C943E000C943E000C943E000C943E0048
:100040000C943E000C943E000C943E000C943E0038
:100050000C943E000C943E000C943E000C943E0028
:100060000C943E000C943E0011241FBECFEFD8E04C
:10007000DEBFCDBF0E94F7010C94D8040C940000A1
:100080000F931F93CF93DF93CDB7DEB728970FB6AB
:10009000F894DEBF0FBECDBF69837A838B839C83C8
:1000A00089819A81AB81BC81880F991FAA1FBB1FD0
:1000B000880F991FAA1FBB1F880F991FAA1FBB1F5C
:1000C000880F991FAA1FBB1F8C019D0180E094E23D
:1000D000A4EFB0E08D839E83AF83B8876D817E816E
:1000E0008F819885A90198010E944C03DA01C9010A
:1000F000282F84EC90E02150DC012C9385EC90E0DB
:10010000FC01108281EC90E0DC012C9181EC90E00C
:100110002869FC01208382EC90E026E0DC012C932E
:10012000000028960FB6F894DEBF0FBECDBFDF915A
:10013000CF911F910F910895CF93DF930F92CDB779
:10014000DEB78983000080EC90E0FC018081882F7D
:1001500090E080729927892BB1F386EC90E0298199
:10016000FC01208300000F90DF91CF910895CF9381
:10017000DF9300D00F92CDB7DEB79B838A831982BD
:100180000EC0898191E0980F9983882F90E02A8191
:100190003B81820F931FFC0180810E949C0089811A
:1001A000882F90E02A813B81820F931FFC01808180
:1001B000882339F780E20E949C0000000F900F9086
:1001C0000F90DF91CF910895CF93DF93CDB7DEB736
:1001D000000080EC90E0FC0180818823D4F786EC5D
:1001E00090E0FC018081DF91CF910895CF93DF9360
:1001F00000D0CDB7DEB79A8389830E94E400282F10
:1002000089819A81FC01208389819A819C012F5FD9
:100210003F4F3A832983FC0180818A3071F78981BD
:100220009A8101979A83898389819A81FC0110823E
:1002300000000F900F90DF91CF910895CF93DF933F
:10024000CDB7DEB78DE00E949C008AE00E949C0042
:100250000000DF91CF910895CF93DF9300D000D0BD
:10026000CDB7DEB79A8389837C836B8349815A81BA
:10027000CA01929582958F7089279F7089279C016A
:10028000A7E4B3E00E946E039695879596958795AF
:100290009695879560E177E2869F9001879F300D64
:1002A000969F300D1124CA01821B930B969587955A
:1002B00096958795969587959C01A5ECB0E20E944E
:1002C0006E03929582958F7089279F708927805D34
:1002D000282F8B819C81FC01208349815A81CA018E
:1002E0009695879596958795969587959C01A5EC0B
:1002F000B0E20E946E03929582958F7089279F705D
:10030000892768EE73E0869F9001879F300D969F46
:10031000300D1124CA01821B930B969587959695F3
:1003200087959C01ABE7B4E10E946E039695879593
:1003300020E3280F8B819C810196FC012083498159
:100340005A81CA0196958795969587959C01ABE74A
:10035000B4E10E946E039695879564E6689F9001CC
:10036000699F300D1124CA01821B930B9C01ADECD7
:10037000BCEC0E946E039695879596958795969509
:10038000879520E3280F8B819C810296FC012083B6
:1003900049815A819A01ADECBCEC0E946E039C012C
:1003A000369527953695279536952795C901880F57
:1003B000991F880F991F820F931F880F991F9A0109
:1003C000281B390B822F20E3280F8B819C810396F9
:1003D000FC0120838B819C810496FC01108200002B
:1003E0000F900F900F900F90DF91CF910895CF93C2
:1003F000DF93CDB7DEB7AF970FB6F894DEBF0FBE71
:10040000CDBF8AE290E0DC012C918AE290E0286086
:10041000FC0120838AE290E0DC012C918AE290E0EA
:100420002B7FFC01208360E875E280E090E00E9471
:10043000400087E490E020EADC012C938BE290E01E
:10044000FC0120818BE290E02860DC012C9385E4A4
:1004500090E0FC01208185E490E02160DC012C9398
:10046000000085E390E0FC018081882F90E082709D
:100470009927892BB1F385E490E0DC012C9185E488
:1004800090E02E7FFC01208386E490E0DC011C924A
:1004900085E390E0FC01208185E390E02260DC01AF
:1004A0002C938BE290E0FC0120818BE290E0277F8F
:1004B000DC012C93000089E290E0FC018081882F10
:1004C00090E084709927892BB1F381E890E0DC01FA
:1004D0002C9181E890E02160FC012083000089E2FA
:1004E00090E0DC018C91882F90E084709927892B13
:1004F000B1F781E890E0FC01108284E890E0DC0133
:100500008D919C91929582958F7089279F708927F4
:100510009A83898384E890E0FC01118210824981EA
:100520005A8127E531E0429FC001439F900D529FC1
:10053000900D112496958795969587959695879514
:100540009C01A5ECB0E20E946E03929582958F709B
:1005500089279F7089278B838B81882F90E09E014C
:100560002E5E3F4F4AE050E0B9010E949804CE0150
:1005700042960E94B7000E941E0180E090E0A8E42D
:10058000B3E48C839D83AE83BF8320E030E04AE7F1
:1005900055E46C817D818E819F810E94030468A354
:1005A00079A38AA39BA388A199A1AAA1BBA18887AB
:1005B0009987AA87BB8720E030E040E85FE3688541
:1005C00079858A859B850E947D0388232CF481E0B0
:1005D00090E09D878C8754C020E03FEF4FE757E4C1
:1005E000688579858A859B850E94FE031816D4F557
:1005F00020E030E040E251E46C817D818E819F817A
:100600000E9403046CA37DA38EA39FA38CA19DA134
:10061000AEA1BFA18C8F9D8FAE8FBF8F6C8D7D8D56
:100620008E8D9F8D0E94820368A779A78AA79BA7BA
:10063000A8A5B9A5BD87AC8710C080E991E09F87C8
:100640008E878E859F850197F1F79F878E870000A3
:100650008C859D8501979D878C878C859D85892BB1
:1006600061F719C0688579858A859B850E94820318
:100670006CA77DA78EA79FA7ECA5FDA5FD87EC879E
:100680008C859D85998B888B888999890197F1F74D
:10069000998B888B0000D2CEA1E21A2EAA1BBB1B1D
:1006A000FD010DC0AA1FBB1FEE1FFF1FA217B3073E
:1006B000E407F50720F0A21BB30BE40BF50B661F54
:1006C000771F881F991F1A9469F760957095809518
:1006D00090959B01AC01BD01CF010895A29FB0018F
:1006E000B39FC001A39F700D811D1124911DB29F66
:1006F000700D811D1124911D08950E94B10308F40D
:1007000081E008950E94DD0388F09F5798F0B92F8B
:100710009927B751B0F0E1F0660F771F881F991F36
:100720001AF0BA95C9F714C0B13091F00E94F703DE
:10073000B1E008950C94F703672F782F8827B85FEE
:1007400039F0B93FCCF3869577956795B395D9F78E
:100750003EF490958095709561957F4F8F4F9F4F98
:100760000895990F0008550FAA0BE0E8FEEF161642
:100770001706E807F907C0F012161306E407F50795
:1007800098F0621B730B840B950B39F40A2661F009
:10079000232B242B252B21F408950A2609F4A140AC
:1007A000A6958FEF811D811D089557FD9058440F28
:1007B000551F59F05F3F71F04795880F97FB991FC0
:1007C00061F09F3F79F0879508951216130614067D
:1007D000551FF2CF4695F1DF08C01616170618060A
:1007E000991FF1CF86957105610508940895E894E5
:1007F000BB2766277727CB0197F908950E94B1039D
:1008000008F48FEF08950E9416040C9487040E9448
:10081000790438F00E94800420F0952311F00C94A4
:1008200070040C94760411240C94F8030E94D503F0
:1008300070F3959FC1F3950F50E0551F629FF00133
:10084000729FBB27F00DB11D639FAA27F00DB11D4C
:10085000AA1F649F6627B00DA11D661F829F2227D5
:10086000B00DA11D621F739FB00DA11D621F839F5C
:10087000A00D611D221F749F3327A00D611D231F32
:10088000849F600D211D822F762F6A2F11249F5780
:1008900050409AF0F1F088234AF0EE0FFF1FBB1F83
:1008A000661F771F881F91505040A9F79E3F510542
:1008B00080F00C9470040C94F8035F3FE4F3983ECE
:1008C000D4F3869577956795B795F795E7959F5FEC
:1008D000C1F7FE2B880F911D9695879597F908957E
:1008E00097F99F6780E870E060E008959FEF80ECE3
:1008F000089500240A941616170618060906089586
:1009000000240A9412161306140605060895092EEB
:100910000394000C11F4882352F0BB0F40F4BF2B5A
:1009200011F460FF04C06F5F7F4F8F4F9F4F08959A
:100930004532510520F4423010F00C94A304FB0121
:100940001082CB010895BB274A3031F4992322F459
:10095000BDE2909581959F4F0C94AF04BB27FB019E
:100960005527AA27880F991FAA1FA41710F0A41BA8
:1009700083955051B9F7A05DAA3308F0A95DA19302
:10098000009779F7B111B1931192CB010C94C8047F
:10099000DC01FC01672F71917723E1F7329704C0E6
:1009A0007C916D9370836291AE17BF07C8F3089571
:0409B000F894FFCFE9
:00000001FF
