:100000000C9434000C9446000C9446000C9446006A
:100010000C9446000C9446000C9446000C94460048
:100020000C9446000C9446000C9446000C94460038
:100030000C9446000C9446000C9446000C94460028
:100040000C9446000C9446000C9442020C9446001A
:100050000C9446000C9446000C9446000C94460008
:100060000C9446000C94460011241FBECFEFD8E03C
:10007000DEBFCDBF21E0A0E0B1E001C01D92A53000
:10008000B207E1F70E9495020C9422030C94000041
:100090000F931F93CF93DF93CDB7DEB728970FB69B
:1000A000F894DEBF0FBECDBF69837A838B839C83B8
:1000B00089819A81AB81BC81880F991FAA1FBB1FC0
:1000C000880F991FAA1FBB1F880F991FAA1FBB1F4C
:1000D000880F991FAA1FBB1F8C019D0180E094E22D
:1000E000A4EFB0E08D839E83AF83B8876D817E815E
:1000F0008F819885A90198010E94E602DA01C90161
:10010000282F84EC90E02150DC012C9385EC90E0CA
:10011000FC01108281EC90E0DC012C9181EC90E0FC
:100120002869FC01208382EC90E026E0DC012C931E
:10013000000028960FB6F894DEBF0FBECDBFDF914A
:10014000CF911F910F910895CF93DF930F92CDB769
:10015000DEB78983000080EC90E0FC018081882F6D
:1001600090E080729927892BB1F386EC90E0298189
:10017000FC01208300000F90DF91CF910895CF9371
:10018000DF9300D00F92CDB7DEB79B838A831982AD
:100190000EC0898191E0980F9983882F90E02A8181
:1001A0003B81820F931FFC0180810E94A400898102
:1001B000882F90E02A813B81820F931FFC01808170
:1001C000882339F780E20E94A40000000F900F906E
:1001D0000F90DF91CF910895CF93DF93CDB7DEB726
:1001E000000080EC90E0FC0180818823D4F786EC4D
:1001F00090E0FC018081DF91CF910895CF93DF9350
:1002000000D0CDB7DEB79A8389830E94EC00282FF7
:1002100089819A81FC01208389819A819C012F5FC9
:100220003F4F3A832983FC0180818A3071F78981AD
:100230009A8101979A83898389819A81FC0110822E
:1002400000000F900F90DF91CF910895CF93DF932F
:10025000CDB7DEB78DE00E94A4008AE00E94A40022
:100260000000DF91CF910895CF93DF9300D000D0AD
:10027000CDB7DEB79A8389837C836B8349815A81AA
:10028000CA01929582958F7089279F7089279C015A
:10029000A7E4B3E00E940803969587959695879505
:1002A0009695879560E177E2869F9001879F300D54
:1002B000969F300D1124CA01821B930B969587954A
:1002C00096958795969587959C01A5ECB0E20E943E
:1002D0000803929582958F7089279F708927805D8A
:1002E000282F8B819C81FC01208349815A81CA017E
:1002F0009695879596958795969587959C01A5ECFB
:10030000B0E20E940803929582958F7089279F70B2
:10031000892768EE73E0869F9001879F300D969F36
:10032000300D1124CA01821B930B969587959695E3
:1003300087959C01ABE7B4E10E94080396958795E9
:1003400020E3280F8B819C810196FC012083498149
:100350005A81CA0196958795969587959C01ABE73A
:10036000B4E10E9408039695879564E6689F900122
:10037000699F300D1124CA01821B930B9C01ADECC7
:10038000BCEC0E940803969587959695879596955F
:10039000879520E3280F8B819C810296FC012083A6
:1003A00049815A819A01ADECBCEC0E9408039C0182
:1003B000369527953695279536952795C901880F47
:1003C000991F880F991F820F931F880F991F9A01F9
:1003D000281B390B822F20E3280F8B819C810396E9
:1003E000FC0120838B819C810496FC01108200001B
:1003F0000F900F900F900F90DF91CF910895CF93B2
:10040000DF93CDB7DEB728970FB6F894DEBF0FBEE7
:10041000CDBF69837A838B839C8349815A816B81A9
:100420007C8183E791E0DC019A01AB010E94170314
:100430006D837E838F8398878D819E81AF81B88500
:1004400089839A83AB83BC83000089819A81AB81C5
:10045000BC81AC01BD014150510961097109498359
:100460005A836B837C83892B8A2B8B2B71F700003B
:10047000000028960FB6F894DEBF0FBECDBFDF9107
:10048000CF9108951F920F920FB60F9211242F93C0
:100490003F934F935F936F937F938F939F93AF930C
:1004A000BF93EF93FF93CF93DF930F92CDB7DEB758
:1004B0008FE590E0FC01808189838FE590E0FC016D
:1004C00020818FE590E02F77FC01208386EC90E07F
:1004D000FC018081813379F48BE290E0FC01208182
:1004E0008BE290E02460FC01208380E091E00E9498
:1004F000BF000E9426018FE590E02981FC01208346
:1005000000000F90DF91CF91FF91EF91BF91AF91DC
:100510009F918F917F916F915F914F913F912F911B
:100520000F900FBE0F901F901895CF93DF9300D0C0
:10053000CDB7DEB78AE790E0FC0120818AE790E042
:100540002760FC0120838AE790E0FC0120818AE794
:1005500090E02068FC0120838CE790E0FC01208182
:100560008CE790E02064FC0120838FE590E0FC01A3
:1005700020818FE590E02068FC01208360E07BE42F
:1005800080E090E00E9448008AE790E0FC01208132
:100590008AE790E02064FC01208300008AE790E075
:1005A000FC018081882F90E080749927892BB1F716
:1005B00088E790E0FC01808191819A838983898119
:1005C0009A8160E071E00E943401DECFA1E21A2E30
:1005D000AA1BBB1BFD010DC0AA1FBB1FEE1FFF1FE7
:1005E000A217B307E407F50720F0A21BB30BE40B37
:1005F000F50B661F771F881F991F1A9469F760957E
:100600007095809590959B01AC01BD01CF01089537
:10061000A29FB001B39FC001A39F700D811D112443
:10062000911DB29F700D811D1124911D08950E948E
:100630000803A59F900DB49F900DA49F800D911D60
:0806400011240895F894FFCF86
:00000001FF
